S01A000041726475696E6F556E6F4672656572746F732E73726563BC
S11300000C9434000C9451000C9451000C94510045
S11300100C9451000C9451000C9451000C94510018
S11300200C9451000C9451000C9451000C949502C2
S11300300C9451000C9451000C9451000C945100F8
S11300400C942F020C9451000C9451000C94510008
S11300500C9451000C9451000C9451000C945100D8
S11300600C9451000C94510011241FBECFEFD8E022
S1130070DEBFCDBF11E0A0E0B1E0EEEAFEE002C0D9
S113008005900D92A43AB107D9F727E0A4EAB1E0AC
S113009001C01D92AD3EB207E1F70E9470000C94BE
S11300A055070C94000080E191E00E944607FBCFC5
S11300B0CF93DF9300D0CDB7DEB784E391E00E9405
S11300C046070E94FD049A8389838BE391E00E9492
S11300D046076AE070E0CE0101960E944606F5CF1D
S11300E00E9432078091EB079091EC07892B49F12C
S11300F0A12CB12CC12CD12CE12CF12C01E028E550
S113010031E040E051E06FE571E088E590E00E9465
S1130110BB0327E631E040E051E06EE671E088E59C
S113012090E00E94BB0302E020E030E040E051E0B8
S113013066E771E083E590E00E94BB030E94CC0473
S113014004C08FE791E00E944607FFCFFC010396AD
S1130150928381832FEF3FEF3483238396838583B8
S11301609087878310820895FC0111861086089574
S1130170CF93DF939C01FB01DC011196CD91DC91BF
S11301801297D383C2838C819D81958384838C81D0
S11301909D81DC0113967C936E9312977D836C830F
S11301A031872087F90180818F5F8083DF91CF9130
S11301B00895CF93DF93EB01488159814F3F2FEF8F
S11301C0520721F4FC01A781B0850DC0DC01139610
S11301D001C0DF011296ED91FC91139720813181CA
S11301E042175307B0F71296ED91FC911397FB83D6
S11301F0EA83D583C483BD83AC831396DC93CE9307
S1130200129799878887FC0120812F5F2083DF91D3
S1130210CF910895CF93DF93FC01A085B185C2816E
S1130220D381848195819D838C83C481D58182818E
S113023093819B838A8311968D919C911297E817E1
S1130240F90731F48481958112969C938E931197CA
S1130250118610868C9181508C93DF91CF910895F3
S113026031E1FC013083319722E220833197A3E30B
S1130270A0833197608331977083319710823197CF
S113028060E8608331971082319762E06083319730
S113029063E06083319764E06083319765E0608355
S11302A0319766E06083319767E06083319768E057
S11302B06083319769E06083319760E160833197AF
S11302C03083319732E13083319733E13083319792
S11302D034E13083319735E13083319736E130832F
S11302E0319737E13083319738E13083319739E101
S11302F03083319730E23083319731E23083319764
S11303002083319723E220833197408331975083B0
S1130310319726E22083319727E22083319728E220
S11303202083319729E22083319720E3208331977A
S113033021E3208386970895109289008CE78093A7
S113034088008BE080938100EFE6F0E0808182609A
S11303508083A091E907B091EA07CD91CDBFDD91EB
S1130360DEBFFF91EF91DF91CF91BF91AF919F914C
S11303708F917F916F915F914F913F912F911F9139
S11303800F91FF90EF90DF90CF90BF90AF909F9030
S11303908F907F906F905F904F903F902F901F9021
S11303A00F900FBE0F90089581E008950F920FB63D
S11303B0F8940F921F9211242F923F924F925F92C2
S11303C06F927F928F929F92AF92BF92CF92DF9261
S11303D0EF92FF920F931F932F933F934F935F934B
S11303E06F937F938F939F93AF93BF93CF93DF9339
S11303F0EF93FF93A091E907B091EA070DB60D9230
S11304000EB60D920E94C506A091E907B091EA07C5
S1130410CD91CDBFDD91DEBFFF91EF91DF91CF9103
S1130420BF91AF919F918F917F916F915F914F9108
S11304303F912F911F910F91FF90EF90DF90CF90FC
S1130440BF90AF909F908F907F906F905F904F90F0
S11304503F902F901F900F900FBE0F9008951F9202
S11304600F920FB60F9211240F900FBE0F901F9092
S113047018950F920FB6F8940F921F9211242F9291
S11304803F924F925F926F927F928F929F92AF9220
S1130490BF92CF92DF92EF92FF920F931F932F930D
S11304A03F934F935F936F937F938F939F93AF93F8
S11304B0BF93CF93DF93EF93FF93A091E907B0919C
S11304C0EA070DB60D920EB60D920E940705811132
S11304D00E94C506A091E907B091EA07CD91CDBF6E
S11304E0DD91DEBFFF91EF91DF91CF91BF91AF918D
S11304F09F918F917F916F915F914F913F912F9138
S11305001F910F91FF90EF90DF90CF90BF90AF902D
S11305109F908F907F906F905F904F903F902F901F
S11305201F900F900FBE0F9008950E9439021895E6
S11305300F931F93CF93DF93EC010E94F7048091F4
S1130540A40181111DC0E9EAF1E08EEA91E09183F2
S1130550808313821282E5EAF1E08BED95E09383C8
S1130560828311821082ADEAB1E014969C938E933B
S113057013971296FC93EE93119781E08093A40154
S1130580209709F45FC09E012C5F3F4F2396CA3D1C
S1130590D54008F05AC0E091A901F091AA01A9EA56
S11305A0B1E002C0DF01FC018281938182179307CD
S11305B020F4808191810097A9F7C1E0E53AFC0716
S11305C009F446C0CD91DC9111978E010C5F1F4F49
S11305D0808191818D939C9382819381821B930B63
S11305E08930910510F1BF01620F731FDB0113966F
S11305F09C938E9312973383228312964D915C9130
S1130600139789EA91E001C0CD01EC01A881B98179
S113061012962D913C91139724173507A8F3EB01FB
S1130620B983A883DC016D937C9380910001909140
S1130630010122813381821B930B909301018093EA
S1130640000108C000E010E005C000E010E002C0B6
S113065000E010E00E94C405C801DF91CF911F9112
S11306600F9108950F931F93CF93DF93009741F158
S1130670EC018C01045011090E94F704F801428135
S11306805381A9EAB1E001C0DF01ED91FC9111971A
S11306902281338124173507B8F32497F983E8833B
S11306A00D931C9320910001309101018A819B815B
S11306B0820F931F90930101809300010E94C4054F
S11306C0DF91CF911F910F910895E091B107F091BF
S11306D0B2078081811107C08FEF9FEF90930301D0
S11306E0809302010895E091B107F091B20705806B
S11306F0F681E02D0680F781E02D8281938190932D
S11307000301809302010895CF93DF93EC01E091FC
S1130710E907F091EA07938382838091900790918F
S11307209107C817D90768F46091E9077091EA073F
S11307308091AF079091B0076E5F7F4F0E94D90000
S113074017C06091E9077091EA078091B107909111
S1130750B2076E5F7F4F0E94D90080910201909191
S11307600301C817D90720F4D0930301C0930201F1
S1130770DF91CF9108954F925F926F927F928F9203
S11307809F92AF92BF92CF92DF92EF92FF920F931C
S11307901F93CF93DF934C01EB015A012901C1143C
S11307A0D10439F4CA010E9498026C01892B09F41E
S11307B0E1C086E290E00E9498023C01009779F043
S11307C0FC01D08EC78AF1E0AF1AB108CA0CDB1C59
S11307D08881F301818F8881811105C014C0C6010D
S11307E00E943203C7C0D3015A96FE0131969E017E
S11307F0285F3F4FEF0181918D938881882319F001
S1130800E217F307B9F7F30110A2102F043008F030
S113081013E0F301168BE3012296CE010E94B4008B
S1130820C3010C960E94B400F3017186608684E0D3
S113083090E0811B910995878487738A628A11A24B
S113084012A213A214A215A2A201B401C6010E940D
S11308503001F30191838083E114F10419F0F7016D
S1130860718260820FB6F8940F92809192078F5F25
S1130870809392078091E9079091EA07892BD1F53B
S11308807092EA076092E90780919207813009F03B
S113089040C085EC97E00E94A6008EEC97E00E9491
S11308A0A60087ED97E00E94A60080EE97E00E94E4
S11308B0A6008CEB97E00E94A60083EB97E00E94D1
S11308C0A60086EA97E00E94A6008DE997E00E94C0
S11308D0A60083E997E00E94A6008CEB97E0909332
S11308E0B2078093B10783EB97E09093B0078093AE
S11308F0AF070FC080918E0781110BC0E091E9070B
S1130900F091EA078689081720F07092EA0760924E
S1130910E90780918A078F5F80938A07F3018689AC
S113092090918F07981710F480938F0790E09C01A3
S1130930220F331F220F331F220F331F820F931FE7
S1130940BE018B53984F0E94B8000F900FBE809148
S11309508E07882359F0E091E907F091EA07868928
S1130960801730F40E94D60181E005C081E003C005
S113097081E001C08FEFDF91CF911F910F91FF9024
S1130980EF90DF90CF90BF90AF909F908F907F902B
S11309906F905F904F900895AF92BF92CF92DF9285
S11309A0EF92FF920F93A12CB12CC12CD12CE12CEE
S11309B0F12C00E020E030E045E550E06EE971E024
S11309C088E896E00E94BB03813049F4F894809350
S11309D08E0710929107109290070E949C010F912C
S11309E0FF90EF90DF90CF90BF90AF9008958091EB
S11309F089078F5F8093890708950FB6F8940F9243
S1130A0080919007909191070F900FBE0895CF9217
S1130A10DF92EF92FF920F931F93CF93DF93809116
S1130A20890781119BC0809190079091910701964D
S1130A309093910780939007E0909007F09091072E
S1130A40E114F104B9F48091B1079091B2072091B7
S1130A50AF073091B0073093B2072093B10790935A
S1130A60B0078093AF0780918B078F5F80938B07CC
S1130A700E9465038091020190910301E816F90632
S1130A8010F4D12C53C0D12CCC24C394E091B107E1
S1130A90F091B2078081811107C08FEF9FEF90938F
S1130AA003018093020142C0E091B107F091B207C3
S1130AB00580F681E02DC681D7818A819B81E81665
S1130AC0F90628F490930301809302012FC08E014C
S1130AD00E5F1F4FC8010E940A018C899D89892BD2
S1130AE021F0CE010C960E940A018E8990918F0705
S1130AF0981710F480938F0790E09C01220F331F06
S1130B00220F331F220F331F820F931FB8018B5301
S1130B10984F0E94B800E091E907F091EA079E8996
S1130B208689981708F4B2CFDC2CB0CFE091E9079E
S1130B30F091EA07868990E0FC01EE0FFF1FEE0FAB
S1130B40FF1FEE0FFF1F8E0F9F1FFC01EB53F84F8B
S1130B508081823048F0DD24D39406C080918D07D3
S1130B608F5F80938D07D12C80918C07882311F09F
S1130B70DD24D3948D2DDF91CF911F910F91FF90A0
S1130B80EF90DF90CF900895DF92EF92FF920F9352
S1130B901F93CF93DF930FB6F8940F928091890738
S1130BA081508093890780918907811162C0809167
S1130BB09207811133C060C0D7011596ED91FC9165
S1130BC01697C681D781CE010C960E940A018E0128
S1130BD00E5F1F4FC8010E940A018E8990918F07F2
S1130BE0981710F480938F0790E09C01220F331F15
S1130BF0220F331F220F331F820F931FB8018B5311
S1130C00984F0E94B800E091E907F091EA079E89A5
S1130C108689981758F0D0928C0708C00F2EF6EAF0
S1130C20EF2EF7E0FF2EF02DDD24D394F701808121
S1130C308111C2CF80918D07882399F080918D070F
S1130C40882379F0C1E00E9407058111C0938C07C5
S1130C5080918D07815080938D0780918D0781113C
S1130C60F2CF80918C07813031F40E94D60181E06B
S1130C7003C080E001C080E00F900FBEDF91CF91F0
S1130C801F910F91FF90EF90DF9008950F931F93A2
S1130C90CF93DF938C01EB010E94F704209190071E
S1130CA030919107F80180819181C80FD91F2817CD
S1130CB0390748F4C817D90710F5D183C0832C1716
S1130CC03D0790F407C0C817D907A8F02C173D07B3
S1130CD090F015C08091E9079091EA0702960E946E
S1130CE00A01CE010E9484030E94C40581110BC035
S1130CF00E94D60108C0F801D183C083EBCFF8016C
S1130D00D183C083F1CFDF91CF911F910F910895CB
S1130D100DE917E00F2EF5ECEF2EF7E0FF2EF02D86
S1130D2029C00E94F704D801CC910E94C405CC23A9
S1130D3009F10FB6F8940F92D8011596ED91FC9134
S1130D401697C681D781CE0102960E940A0180912E
S1130D50920781508093920780919C0781508093E1
S1130D609C070F900FBE8F89988D0E943203CE018D
S1130D700E94320380919C078111D3CFF7018081B7
S1130D808230C0F30E94D601F5CF80918907882371
S1130D9021F081E080938C07089510928C07809154
S1130DA08F0790E0FC01EE0FFF1FEE0FFF1FEE0F09
S1130DB0FF1F8E0F9F1FFC01EB53F84F80818111A1
S1130DC017C080918F07815080938F0780918F0780
S1130DD090E0FC01EE0FFF1FEE0FFF1FEE0FFF1F51
S1130DE08E0F9F1FFC01EB53F84F8081882349F33A
S1130DF080918F0790E09C01220F331F220F331F35
S1130E00220F331F280F391FD901AB53B84F119646
S1130E10ED91FC9112970280F381E02D1296FC93E0
S1130E20EE9311972853384FE217F30729F42281E0
S1130E303381FD0132832183FC01EE0FFF1FEE0F8E
S1130E40FF1FEE0FFF1F8E0F9F1FFC01EB53F84F88
S1130E500180F281E02D868197819093EA07809347
S1130E60E90708951092C50087E68093C4008CE1D9
S1130E708093C10086E08093C2000895E0ECF0E026
S1130E80908195FFFDCF8093C6000895CF93DF93A3
S1130E90EC018881882331F021960E943E078991D4
S1110EA08111FBCFDF91CF910895F894FFCF1D
S1130EAEDB05FFFF5265636569766564203D2000AE
S1130EBE436F756C64206E6F74207265636569761A
S1130ECE652066726F6D2074686520717565756531
S1130EDE2E0D0A0073656E64657200436F756C6443
S1130EEE206E6F742073656E6420746F2074686551
S1130EFE2071756575652E005461736B2031005336
S1130F0E656E64657231005461736B2032005365F3
S1130F1E6E6465723200526563656976657200545B
S1130F2E686520717565756520636F756C64206ED8
S1130F3E6F74206265206372656174656400494450
S1070F4E4C4500000A
S9030000FC
