:100000000C9434000C943B060C9468060C9451003C
:100010000C9451000C9451000C9451000C9451001C
:100020000C9451000C9451000C9451000C9421023A
:100030000C9451000C9451000C9451000C945100FC
:100040000C94BB010C9451000C9451000C94510081
:100050000C9451000C9451000C9451000C945100DC
:100060000C9451000C94510011241FBECFEFD8E026
:10007000DEBFCDBF11E0A0E0B1E0E4E7FDE002C0EB
:1000800005900D92A832B107D9F727E0A8E2B1E0B8
:1000900001C01D92A537B207E1F70E9453000C94EE
:1000A000B8060C9400000E94950680917307909109
:1000B0007407892B19F00E94210404C084E091E0A8
:1000C0000E94A906FFCFFC010396928381832FEF44
:1000D0003FEF3483238396838583908787831082C1
:1000E0000895FC01118610860895CF93DF939C013B
:1000F000FB01DC011196CD91DC911297D383C28371
:100100008C819D81958384838C819D81DC011396F4
:100110007C936E9312977D836C8331872087F901DE
:1001200080818F5F8083DF91CF910895CF93DF939C
:10013000FC01A085B185C281D381848195819D8395
:100140008C83C481D581828193819B838A8311961C
:100150008D919C911297E817F90731F4848195816C
:1001600012969C938E931197118610868C918150D4
:100170008C93DF91CF91089531E1FC013083319769
:1001800022E220833197A3E3A083319760833197E4
:10019000708331971082319760E8608331971082C5
:1001A000319762E06083319763E06083319764E068
:1001B0006083319765E06083319766E060833197B3
:1001C00067E06083319768E06083319769E060831E
:1001D000319760E1608331973083319732E130832A
:1001E000319733E13083319734E13083319735E112
:1001F0003083319736E13083319737E1308331975F
:1002000038E13083319739E13083319730E2308300
:10021000319731E2308331972083319723E2208375
:100220003197408331975083319726E2208331976D
:1002300027E22083319728E22083319729E2208327
:10024000319720E32083319721E320838697089517
:10025000109289008CE7809388008BE08093810066
:10026000EFE6F0E0808182608083A0916D07B0911D
:100270006E07CD91CDBFDD91DEBFFF91EF91DF9194
:10028000CF91BF91AF919F918F917F916F915F912E
:100290004F913F912F911F910F91FF90EF90DF9021
:1002A000CF90BF90AF909F908F907F906F905F9016
:1002B0004F903F902F901F900F900FBE0F9008957A
:1002C00081E008950F920FB6F8940F921F921124B7
:1002D0002F923F924F925F926F927F928F929F9256
:1002E000AF92BF92CF92DF92EF92FF920F931F9344
:1002F0002F933F934F935F936F937F938F939F932E
:10030000AF93BF93CF93DF93EF93FF93A0916D07CC
:10031000B0916E070DB60D920EB60D920E94CE05ED
:10032000A0916D07B0916E07CD91CDBFDD91DEBF7D
:10033000FF91EF91DF91CF91BF91AF919F918F91FD
:100340007F916F915F914F913F912F911F910F91ED
:10035000FF90EF90DF90CF90BF90AF909F908F90E5
:100360007F906F905F904F903F902F901F900F90D5
:100370000FBE0F9008951F920F920FB60F92112487
:100380000F900FBE0F901F9018950F920FB6F89414
:100390000F921F9211242F923F924F925F926F9271
:1003A0007F928F929F92AF92BF92CF92DF92EF9205
:1003B000FF920F931F932F933F934F935F936F93EE
:1003C0007F938F939F93AF93BF93CF93DF93EF93DD
:1003D000FF93A0916D07B0916E070DB60D920EB60A
:1003E0000D920E94520481110E94CE05A0916D07CA
:1003F000B0916E07CD91CDBFDD91DEBFFF91EF9142
:10040000DF91CF91BF91AF919F918F917F916F912C
:100410005F914F913F912F911F910F91FF90EF901E
:10042000DF90CF90BF90AF909F908F907F906F9014
:100430005F904F903F902F901F900F900FBE0F90A6
:1004400008950E94C50118950F931F93CF93DF93D2
:10045000EC010E944C048091280181111DC0EDE245
:10046000F1E082E391E09183808313821282E9E2DA
:10047000F1E08BED95E09383828311821082A1E3FA
:10048000B1E014969C938E9313971296FC93EE937F
:10049000119781E080932801209709F45FC09E01A5
:1004A0002C5F3F4F2396CA3DD54008F05AC0E091DB
:1004B0002D01F0912E01ADE2B1E002C0DF01FC019F
:1004C000828193818217930720F480819181009724
:1004D000A9F7C1E0E932FC0709F446C0CD91DC91EF
:1004E00011978E010C5F1F4F808191818D939C939A
:1004F00082819381821B930B8930910510F1BF019A
:10050000620F731FDB0113969C938E9312973383B4
:10051000228312964D915C9113978DE291E001C078
:10052000CD01EC01A881B98112962D913C911397D0
:1005300024173507A8F3EB01B983A883DC016D9379
:100540007C93809100019091010122813381821B73
:10055000930B909301018093000108C000E010E02C
:1005600005C000E010E002C000E010E00E940F05AE
:10057000C801DF91CF911F910F9108950F931F93A1
:10058000CF93DF93009741F1EC018C0104501109E6
:100590000E944C04F80142815381ADE2B1E001C0F8
:1005A000DF01ED91FC9111972281338124173507EA
:1005B000B8F32497F983E8830D931C9320910001ED
:1005C000309101018A819B81820F931F90930101D9
:1005D000809300010E940F05DF91CF911F910F9131
:1005E0000895E0913507F09136078081811107C0A9
:1005F0008FEF9FEF90930301809302010895E091A4
:100600003507F09136070580F681E02D0680F781E9
:10061000E02D8281938190930301809302010895DC
:100620004F925F926F927F928F929F92AF92BF9202
:10063000CF92DF92EF92FF920F931F93CF93DF93AE
:100640004C01EB015A012901C114D10439F4CA014A
:100650000E9424026C01892B09F4E1C086E290E03B
:100660000E9424023C01009779F0FC01D08EC78AD9
:10067000F1E0AF1AB108CA0CDB1C8881F301818F4D
:100680008881811105C014C0C6010E94BE02C7C086
:10069000D3015A96FE0131969E01285F3F4FEF012C
:1006A00081918D938881882319F0E217F307B9F7B8
:1006B000F30110A2102F043008F013E0F301168BA1
:1006C000E3012296CE010E947100C3010C960E94A4
:1006D0007100F3017186608684E090E0811B9109CE
:1006E00095878487738A628A11A212A213A214A228
:1006F00015A2A201B401C6010E94BC00F3019183BE
:100700008083E114F10419F0F701718260820FB661
:10071000F8940F92809116078F5F8093160780914F
:100720006D0790916E07892BD1F570926E076092DC
:100730006D0780911607813009F040C089E497E089
:100740000E94630082E597E00E9463008BE597E0DA
:100750000E94630084E697E00E94630080E497E0D3
:100760000E94630087E397E00E9463008AE297E0BB
:100770000E94630081E297E00E94630087E197E0B6
:100780000E94630080E497E09093360780933507DA
:1007900087E397E090933407809333070FC08091ED
:1007A000120781110BC0E0916D07F0916E078689E9
:1007B000081720F070926E0760926D0780910E0707
:1007C0008F5F80930E07F301868990911307981726
:1007D00010F48093130790E09C01220F331F220F27
:1007E000331F220F331F820F931FBE01875B984F69
:1007F0000E9475000F900FBE80911207882359F058
:10080000E0916D07F0916E078689801730F40E94A1
:10081000620181E005C081E003C081E001C08FEF8B
:10082000DF91CF911F910F91FF90EF90DF90CF90CC
:10083000BF90AF909F908F907F906F905F904F9000
:100840000895AF92BF92CF92DF92EF92FF920F93F3
:10085000A12CB12CC12CD12CE12CF12C00E020E0FA
:1008600030E045E550E063E271E081E995E00E9407
:100870001003813049F4F894809312071092150701
:10088000109214070E9428010F91FF90EF90DF90C3
:10089000CF90BF90AF90089580910D078F5F8093A8
:1008A0000D070895CF92DF92EF92FF920F931F935F
:1008B000CF93DF9380910D0781119BC08091140726
:1008C0009091150701969093150780931407E09077
:1008D0001407F0901507E114F104B9F4809135077D
:1008E00090913607209133073091340730933607C3
:1008F00020933507909334078093330780910F0737
:100900008F5F80930F070E94F10280910201909106
:100910000301E816F90610F4D12C53C0D12CCC24D5
:10092000C394E0913507F09136078081811107C0AB
:100930008FEF9FEF909303018093020142C0E091FB
:100940003507F09136070580F681E02DC681D78105
:100950008A819B81E816F90628F49093030180931D
:1009600002012FC08E010E5F1F4FC8010E9496002A
:100970008C899D89892B21F0CE010C960E949600CE
:100980008E8990911307981710F48093130790E0C5
:100990009C01220F331F220F331F220F331F820FA0
:1009A000931FB801875B984F0E947500E0916D0717
:1009B000F0916E079E898689981708F4B2CFDC2CD7
:1009C000B0CFE0916D07F0916E07868990E0FC0151
:1009D000EE0FFF1FEE0FFF1FEE0FFF1F8E0F9F1F6B
:1009E000FC01E75BF84F8081823048F0DD24D3942E
:1009F00006C0809111078F5F80931107D12C8091E1
:100A00001007882311F0DD24D3948D2DDF91CF9131
:100A10001F910F91FF90EF90DF90CF900895DF929C
:100A2000EF92FF920F931F93CF93DF930FB6F8943B
:100A30000F9280910D07815080930D0780910D07D3
:100A4000811162C080911607811133C060C0D70147
:100A50001596ED91FC911697C681D781CE010C9623
:100A60000E9496008E010E5F1F4FC8010E949600E3
:100A70008E8990911307981710F48093130790E0D4
:100A80009C01220F331F220F331F220F331F820FAF
:100A9000931FB801875B984F0E947500E0916D0726
:100AA000F0916E079E898689981758F0D0921007AA
:100AB00008C00F2EFAE2EF2EF7E0FF2EF02DDD2416
:100AC000D394F70180818111C2CF809111078823CF
:100AD00099F080911107882379F0C1E00E945204B7
:100AE0008111C093100780911107815080931107E5
:100AF000809111078111F2CF80911007813031F47C
:100B00000E94620181E003C080E001C080E00F909C
:100B10000FBEDF91CF911F910F91FF90EF90DF906B
:100B2000089501E217E00F2EF9E4EF2EF7E0FF2E13
:100B3000F02D29C00E944C04D801CC910E940F05D1
:100B4000CC2309F10FB6F8940F92D8011596ED91C8
:100B5000FC911697C681D781CE0102960E9496001D
:100B6000809116078150809316078091200781504D
:100B7000809320070F900FBE8F89988D0E94BE0230
:100B8000CE010E94BE02809120078111D3CFF701D0
:100B900080818230C0F30E946201F5CF80910D0701
:100BA000882321F081E080931007089510921007A8
:100BB0008091130790E0FC01EE0FFF1FEE0FFF1F67
:100BC000EE0FFF1F8E0F9F1FFC01E75BF84F808128
:100BD000811117C080911307815080931307809172
:100BE000130790E0FC01EE0FFF1FEE0FFF1FEE0F4B
:100BF000FF1F8E0F9F1FFC01E75BF84F808188234A
:100C000049F38091130790E09C01220F331F220FBC
:100C1000331F220F331F280F391FD901A75BB84F8D
:100C20001196ED91FC9112970280F381E02D1296BE
:100C3000FC93EE931197245B384FE217F30729F4E6
:100C400022813381FD0132832183FC01EE0FFF1FDE
:100C5000EE0FFF1FEE0FFF1F8E0F9F1FFC01E75BC4
:100C6000F84F0180F281E02D8681978190936E0785
:100C700080936D0708951F920F920FB60F92112463
:100C80002F933F934F935F936F937F938F939F9394
:100C9000AF93BF93EF93FF9380916F07909170078D
:100CA000892B29F0E0916F07F09170070995FF916A
:100CB000EF91BF91AF919F918F917F916F915F91D4
:100CC0004F913F912F910F900FBE0F901F9018954D
:100CD0001F920F920FB60F9211242F933F934F93B1
:100CE0005F936F937F938F939F93AF93BF93EF9394
:100CF000FF938091710790917207892B29F0E09101
:100D00007107F09172070995FF91EF91BF91AF9133
:100D10009F918F917F916F915F914F913F912F9113
:100D20000F900FBE0F901F9018951092C50087E688
:100D30008093C4008CE18093C10086E08093C20060
:100D40000895E0ECF0E0908195FFFDCF8093C60020
:100D50000895CF93DF93EC018881882331F02196A9
:100D60000E94A10689918111FBCFDF91CF91089557
:040D7000F894FFCF25
:100D7400DB05FFFF54686520717565756520636F39
:100D8400756C64206E6F7420626520637265617493
:080D940065640049444C450070
:00000001FF
