:100000000C9434000C94F30A0C94200B0C945100C3
:100010000C9451000C9451000C9451000C9451001C
:100020000C9451000C9451000C9451000C94D70284
:100030000C9451000C9451000C9451000C945100FC
:100040000C9471020C9451000C9451000C945100CA
:100050000C9451000C9451000C9451000C945100DC
:100060000C9451000C94510011241FBECFEFD8E026
:10007000DEBFCDBF11E0A0E0B1E0E6EFF6E102C0E7
:1000800005900D92A43BB107D9F728E0A4EBB1E0AD
:1000900001C01D92A130B207E1F70E94AD000C949F
:1000A000790B0C940000CF93DF9300D0CDB7DEB76F
:1000B0008091FF07909100080E946106882321F03B
:1000C00084E091E00E94610B20E041E250E0BE013B
:1000D0006F5F7F4F8091FF07909100080E94B505E8
:1000E000813069F48DE191E00E94610B89819A81F0
:1000F0000E94610B84E591E00E94610BD9CF89E2F7
:1001000091E00E94610BD4CFCF93DF9300D000D059
:10011000CDB7DEB79A8389838DE491E00E94610BAD
:100120000E9401089C838B8320E040E050E0BE01E8
:100130006F5F7F4F8091FF07909100080E94060536
:10014000813021F087E591E00E94610B64E670E068
:10015000CE0103960E944A09E7CF0E944D0B40E072
:1001600062E085E00E94D804909300088093FF0726
:10017000892B49F1A12CB12CC12CD12CE12CF12CD3
:1001800001E024E731E044E650E067E771E084E80D
:1001900090E00E94BF062DE731E044E650E060E8C1
:1001A00071E084E890E00E94BF0602E020E030E0C9
:1001B00044E650E066E871E083E590E00E94BF0607
:1001C0000E94D00704C08BE891E00E94610BFFCF32
:1001D000FC010396928381832FEF3FEF34832383C7
:1001E000968385839087878310820895FC0111860A
:1001F00010860895CF93DF939C01FB01DC011196DB
:10020000CD91DC911297D383C2838C819D8195839C
:1002100084838C819D81DC0113967C936E9312976D
:100220007D836C8331872087F90180818F5F808394
:10023000DF91CF910895CF93DF93EB0148815981EE
:100240004F3F2FEF520721F4FC01A781B0850DC06D
:10025000DC01139601C0DF011296ED91FC9113971A
:100260002081318142175307B0F71296ED91FC912E
:100270001397FB83EA83D583C483BD83AC83139632
:10028000DC93CE93129799878887FC0120812F5F9A
:100290002083DF91CF910895CF93DF93FC01A08558
:1002A000B185C281D381848195819D838C83C481F2
:1002B000D581828193819B838A831196CD91DC9134
:1002C0001297CE17DF0731F48C819D8112969C9393
:1002D0008E931197118610868C9181508C93DF91AB
:1002E000CF91089531E1FC013083319722E22083E0
:1002F0003197A3E3A083319760833197708331975F
:100300001082319760E8608331971082319762E004
:100310006083319763E06083319764E06083319755
:1003200065E06083319766E06083319767E06083C2
:10033000319768E06083319769E06083319760E1CD
:10034000608331973083319732E13083319733E1E5
:100350003083319734E13083319735E13083319701
:1003600036E13083319737E13083319738E130839C
:10037000319739E13083319730E23083319731E280
:10038000308331972083319723E220833197408354
:1003900031975083319726E22083319727E22083DB
:1003A000319728E22083319729E22083319720E397
:1003B0002083319721E32083869708951092890046
:1003C0008CE7809388008BE080938100EFE6F0E07B
:1003D000808182608083A091F907B091FA07CD9166
:1003E000CDBFDD91DEBFFF91EF91DF91CF91BF9146
:1003F000AF919F918F917F916F915F914F913F91BD
:100400002F911F910F91FF90EF90DF90CF90BF90B1
:10041000AF909F908F907F906F905F904F903F90A4
:100420002F901F900F900FBE0F90089581E00895B8
:100430000F920FB6F8940F921F9211242F923F92B1
:100440004F925F926F927F928F929F92AF92BF92E4
:10045000CF92DF92EF92FF920F931F932F933F93D0
:100460004F935F936F937F938F939F93AF93BF93BC
:10047000CF93DF93EF93FF93A091F907B091FA0721
:100480000DB60D920EB60D920E94C909A091F90702
:10049000B091FA07CD91CDBFDD91DEBFFF91EF9115
:1004A000DF91CF91BF91AF919F918F917F916F918C
:1004B0005F914F913F912F911F910F91FF90EF907E
:1004C000DF90CF90BF90AF909F908F907F906F9074
:1004D0005F904F903F902F901F900F900FBE0F9006
:1004E00008951F920F920FB60F9211240F900FBE16
:1004F0000F901F9018950F920FB6F8940F921F92BD
:1005000011242F923F924F925F926F927F928F921F
:100510009F92AF92BF92CF92DF92EF92FF920F9392
:100520001F932F933F934F935F936F937F938F937B
:100530009F93AF93BF93CF93DF93EF93FF93A091DC
:10054000F907B091FA070DB60D920EB60D920E9402
:100550000B0881110E94C909A091F907B091FA070F
:10056000CD91CDBFDD91DEBFFF91EF91DF91CF91B6
:10057000BF91AF919F918F917F916F915F914F91BB
:100580003F912F911F910F91FF90EF90DF90CF90AF
:10059000BF90AF909F908F907F906F905F904F90A3
:1005A0003F902F901F900F900FBE0F9008950E94C4
:1005B0007B0218950F931F93CF93DF93EC010E945A
:1005C000FB078091B40181111DC0E9EBF1E08EEBD6
:1005D00091E09183808313821282E5EBF1E08BED51
:1005E00095E09383828311821082ADEBB1E0149683
:1005F0009C938E9313971296FC93EE93119781E040
:100600008093B401209709F45FC09E012C5F3F4F97
:100610002396CA3DD54008F05AC0E091B901F09147
:10062000BA01A9EBB1E002C0DF01FC018281938134
:100630008217930720F4808191810097A9F7C1E088
:10064000E53BFC0709F446C0CD91DC9111978E0182
:100650000C5F1F4F808191818D939C938281938148
:10066000821B930B8930910510F1BF01620F731F3C
:10067000DB0113969C938E931297338322831296F9
:100680004D915C91139789EB91E001C0CD01EC0194
:10069000A881B98112962D913C91139724173507A3
:1006A000A8F3EB01B983A883DC016D937C9380915F
:1006B00000019091010122813381821B930B909361
:1006C00001018093000108C000E010E005C000E0D7
:1006D00010E002C000E010E00E94C808C801DF91ED
:1006E000CF911F910F9108950F931F93CF93DF9395
:1006F000009741F1EC018C01045011090E94FB07A5
:10070000F80142815381A9EBB1E001C0DF01ED9115
:10071000FC9111972281338124173507B8F3249770
:10072000F983E8830D931C9320910001309101011E
:100730008A819B81820F931F909301018093000116
:100740000E94C808DF91CF911F910F9108951F93C8
:10075000CF93DF93EC01142F8C8D8823E9F14111A5
:1007600017C0482F50E08C819D810E94700B2C8D0A
:100770008C819D81820F911D9D838C832A813B8179
:100780008217930748F1888199819D838C8324C0C7
:10079000482F50E08E819F810E94700B8C8D90E0DD
:1007A0009195819591092E813F81280F391F3F83B3
:1007B0002E83488159812417350730F42A813B81E3
:1007C000820F931F9F838E83123031F48A8D88238A
:1007D00019F08A8D81508A8F8A8D8F5F8A8F80E091
:1007E000DF91CF911F910895FF920F931F93CF93A5
:1007F000DF9300D0CDB7DEB79A838983FC01078DE4
:1008000010A1F801928D838D9817E8F4462FBE0150
:100810006F5F7F4FC8010E94A703F82EF801868DF5
:100820008F3F61F48189882379F0C80141960E9445
:10083000630A882349F0FF24F39406C0F801868DEB
:100840008F5F868F01C0F12C8F2D0F900F90DF915D
:10085000CF911F910F91FF900895FC01448D442387
:10086000A9F050E026813781240F351F3783268376
:10087000828193812817390720F0808191819783A5
:100880008683CB01668177810E94700B08950F9358
:100890001F93CF93DF93EC010FB6F8940F928E8DD8
:1008A0001816FCF48E010F5E1F4F2F8D38A1232BDD
:1008B00049F060E0CE010E94F403813061F40E94AF
:1008C000EF0A09C09989992361F0C8010E94630A5F
:1008D00081110E94EF0A9E8D91509E8F9E8D191658
:1008E00024F38FEF8E8F0F900FBE0FB6F8940F92F8
:1008F0008D8D1816BCF48885811105C013C09885AC
:10090000911104C00FC08E01085F1F4FC8010E94E3
:10091000630A81110E94EF0A9D8D91509D8F9D8DDC
:1009200019166CF38FEF8D8F0F900FBEDF91CF9163
:100930001F910F910895CF93DF93EC010FB6F894B8
:100940000F92488159812C8D30E07B8D729FC001C0
:10095000739F900D1124FA01E80FF91FFB83EA83BE
:100960001A8E5D834C83821B930B840F951F9F838C
:100970008E838FEF8D8F8E8F61110CC088858823B9
:1009800089F0CE0108960E94630A813059F40E94D2
:10099000180208C0CE0108960E94E800CE014196D8
:1009A0000E94E8000F900FBE81E0DF91CF91089583
:1009B0000F931F93CF93DF93082F162F6623C9F051
:1009C000869FC001112482960E94DA02EC010097F2
:1009D00021F416C0D983C88303C081969983888384
:1009E0000B8F1C8F61E0CE010E949B0418A21F8E0A
:1009F00007C081E290E00E94DA02EC01892B51F7F6
:100A0000CE01DF91CF911F910F9108959F92AF92E8
:100A1000BF92CF92DF92EF92FF920F931F93CF93EB
:100A2000DF9300D000D01F92CDB7DEB78C016B01F1
:100A30005D834C83A22EB12C992493947C0188E091
:100A4000E80EF11C0FB6F8940F92F801328D938DD9
:100A5000391718F0F2E0AF1227C04A2DB601C801CD
:100A60000E94A703F801278D30A1232B49F06A2D9E
:100A7000C8010E94F403813099F40E94180210C04A
:100A8000F8019189992349F0C80141960E94630AAF
:100A9000813031F40E94180203C081110E941802B3
:100AA0000F900FBE81E050C0EC81FD81EF2B21F44F
:100AB0000F900FBE80E048C0B11005C0CE01019676
:100AC0000E94AB0AB92C0F900FBE0E94FB070FB615
:100AD000F8940F92F801858D8F3F09F4158EF80177
:100AE000868D8F3F09F4168E0F900FBEBE016C5F8E
:100AF0007F4FCE0101960E94B60A81111FC00FB62A
:100B0000F8940F92F801928D0F900FBE838D981379
:100B10000FC06C817D81C7010E94360AC8010E9406
:100B200047040E94C80881118DCF0E9418028ACF05
:100B3000C8010E9447040E94C80884CFC8010E94CF
:100B400047040E94C80880E00F900F900F900F900C
:100B50000F90DF91CF911F910F91FF90EF90DF9059
:100B6000CF90BF90AF909F9008959F92AF92BF9209
:100B7000CF92DF92EF92FF920F931F93CF93DF9369
:100B800000D000D01F92CDB7DEB78C016B015D8322
:100B90004C83922EB12CAA24A3947C0181E1E80E0F
:100BA000F11C0FB6F8940F92F801928D992349F138
:100BB000E680F780B601C8010E942D04911010C094
:100BC000F801828D8150828F80858823B1F0C80121
:100BD00008960E94630A813081F40E9418020DC0B9
:100BE000F801F782E6828189882339F0C8014196AD
:100BF0000E94630A81110E9418020F900FBE81E0CB
:100C00004FC04C815D81452B21F40F900FBE80E0D9
:100C100047C0B11005C0CE0101960E94AB0ABA2CA4
:100C20000F900FBE0E94FB070FB6F8940F92F801C9
:100C3000858D8F3F09F4158EF801968D9F3F09F43D
:100C4000168E0F900FBEBE016C5F7F4FCE010196D6
:100C50000E94B60A81111EC00FB6F8940F92F801D7
:100C6000828D0F900FBE81110FC06C817D81C701F5
:100C70000E94360AC8010E9447040E94C8088111D8
:100C800090CF0E9418028DCFC8010E9447040E9495
:100C9000C80887CFC8010E9447040E94C80880E0A6
:100CA0000F900F900F900F900F90DF91CF911F91A9
:100CB0000F91FF90EF90DF90CF90BF90AF909F90FB
:100CC00008950FB6F8940F92FC01828D0F900FBE1D
:100CD0000895E091C107F091C2078081811107C09A
:100CE0008FEF9FEF90930301809302010895E091AD
:100CF000C107F091C2070580F681E02D0680F781DB
:100D0000E02D8281938190930301809302010895E5
:100D1000CF93DF93EC01E091F907F091FA07938309
:100D200082838091A0079091A107C817D90768F422
:100D30006091F9077091FA078091BF079091C00701
:100D40006E5F7F4F0E941B0117C06091F907709181
:100D5000FA078091C1079091C2076E5F7F4F0E9492
:100D60001B018091020190910301C817D90720F45B
:100D7000D0930301C0930201DF91CF9108954F9268
:100D80005F926F927F928F929F92AF92BF92CF921B
:100D9000DF92EF92FF920F931F93CF93DF934C015B
:100DA000EB015A012901C114D10439F4CA010E948E
:100DB000DA026C01892B09F4E1C086E290E00E941E
:100DC000DA023C01009779F0FC01D08EC78AF1E08D
:100DD000AF1AB108CA0CDB1C8881F301818F8881AE
:100DE000811105C014C0C6010E947403C7C0D3019D
:100DF0005A96FE0131969E01285F3F4FEF01819187
:100E00008D938881882319F0E217F307B9F7F3016E
:100E100010A2102F043008F013E0F301168BE30149
:100E20002296CE010E94F600C3010C960E94F600A5
:100E3000F3017186608684E090E0811B91099587BB
:100E40008487738A628A11A212A213A214A215A225
:100E5000A201B401C6010E947201F3019183808353
:100E6000E114F10419F0F701718260820FB6F89471
:100E70000F928091A2078F5F8093A2078091F9075C
:100E80009091FA07892BD1F57092FA076092F907D1
:100E90008091A207813009F040C085ED97E00E9463
:100EA000E8008EED97E00E94E80087EE97E00E9450
:100EB000E80080EF97E00E94E8008CEC97E00E9449
:100EC000E80083EC97E00E94E80086EB97E00E9440
:100ED000E8008DEA97E00E94E80083EA97E00E942C
:100EE000E8008CEC97E09093C2078093C10783ECF5
:100EF00097E09093C0078093BF070FC080919E0733
:100F000081110BC0E091F907F091FA078689081763
:100F100020F07092FA076092F90780919A078F5F2C
:100F200080939A07F301868990919F07981710F490
:100F300080939F0790E09C01220F331F220F331FE5
:100F4000220F331F820F931FBE018B52984F0E94B6
:100F5000FA000F900FBE80919E07882359F0E09110
:100F6000F907F091FA078689801730F40E94180279
:100F700081E005C081E003C081E001C08FEFDF9117
:100F8000CF911F910F91FF90EF90DF90CF90BF9086
:100F9000AF909F908F907F906F905F904F9008954B
:100FA000AF92BF92CF92DF92EF92FF920F93A12C5C
:100FB000B12CC12CD12CE12CF12C00E020E030E050
:100FC00045E550E06EEA71E08CE899E00E94BF06CA
:100FD000813049F4F89480939E071092A1071092F3
:100FE000A0070E94DE010F91FF90EF90DF90CF905D
:100FF000BF90AF900895809199078F5F8093990774
:1010000008950FB6F8940F928091A0079091A107D0
:101010000F900FBE0895CF92DF92EF92FF920F9341
:101020001F93CF93DF938091990781119BC080918B
:10103000A0079091A10701969093A1078093A00724
:10104000E090A007F090A107E114F104B9F48091B9
:10105000C1079091C2072091BF073091C00730931C
:10106000C2072093C1079093C0078093BF07809168
:101070009B078F5F80939B070E9469068091020106
:1010800090910301E816F90610F4D12C53C0D12C2D
:10109000CC24C394E091C107F091C20790819111D3
:1010A00007C08FEF9FEF909303018093020142C02E
:1010B000E091C107F091C2070580F681E02DC6815D
:1010C000D7812A813B81E216F30628F4309303018D
:1010D000209302012FC08E010E5F1F4FC8010E9496
:1010E0004C018C899D89892B21F0CE010C960E94A0
:1010F0004C012E8980919F07821710F420939F073F
:1011000030E0C901880F991F880F991F880F991F18
:10111000820F931FB8018B52984F0E94FA00E09102
:10112000F907F091FA079E898689981708F4B2CFDB
:10113000DC2CB0CFE091F907F091FA07868990E0B6
:10114000FC01EE0FFF1FEE0FFF1FEE0FFF1F8E0FB4
:101150009F1FFC01EB52F84F8081823048F0DD2464
:10116000D39406C080919D078F5F80939D07D12CFB
:1011700080919C07882311F0DD24D3948D2DDF917D
:10118000CF911F910F91FF90EF90DF90CF90089536
:10119000DF92EF92FF920F931F93CF93DF930FB6DF
:1011A000F8940F92809199078150809399078091CC
:1011B0009907811162C08091A207811133C060C07C
:1011C000D7011596ED91FC911697C681D781CE0176
:1011D0000C960E944C018E010E5F1F4FC8010E94A9
:1011E0004C012E8980919F07821710F420939F074E
:1011F00030E0C901880F991F880F991F880F991F28
:10120000820F931FB8018B52984F0E94FA00E09111
:10121000F907F091FA079E898689981758F0D092BD
:101220009C0708C00F2EF6EBEF2EF7E0FF2EF02DF7
:10123000DD24D394F70180818111C2CF80919D0775
:10124000882399F080919D07882379F0C1E00E945E
:101250000B088111C0939C0780919D07815080935A
:101260009D0780919D078111F2CF80919C0781306D
:1012700031F40E94180281E003C080E001C080E0E8
:101280000F900FBEDF91CF911F910F91FF90EF90C4
:10129000DF9008950F931F93CF93DF938C01EB01A1
:1012A0000E94FB078091A0079091A107F80120817F
:1012B0003181C20FD31F8217930748F4C217D30797
:1012C00010F5D183C0838C179D0790F407C0C21717
:1012D000D307A8F08C179D0790F015C08091F907EF
:1012E0009091FA0702960E944C01CE010E94880656
:1012F0000E94C80881110BC00E94180208C0F801A2
:10130000D183C083EBCFF801D183C083F1CFDF91CC
:10131000CF911F910F9108950DEA17E00F2EF5ED73
:10132000EF2EF7E0FF2EF02D29C00E94FB07D80119
:10133000CC910E94C808CC2309F10FB6F8940F9203
:10134000D8011596ED91FC911697C681D781CE01F3
:1013500002960E944C018091A20781508093A207BF
:101360008091AC0781508093AC070F900FBE8F899E
:10137000988D0E947403CE010E9474038091AC0783
:101380008111D3CFF70180818230C0F30E9418020F
:10139000F5CF80919907882321F081E080939C0705
:1013A000089510929C0780919F0790E0FC01EE0F3A
:1013B000FF1FEE0FFF1FEE0FFF1F8E0F9F1FFC0181
:1013C000EB52F84F8081811117C080919F078150A7
:1013D00080939F0780919F0790E0FC01EE0FFF1F15
:1013E000EE0FFF1FEE0FFF1F8E0F9F1FFC01EB5232
:1013F000F84F8081882349F380919F0790E09C01FA
:10140000220F331F220F331F220F331F280F391FC4
:10141000D901AB52B84F1196ED91FC911297028011
:10142000F381E02D1296FC93EE9311972852384FDA
:10143000E217F30729F422813381FD0132832183EE
:10144000FC01EE0FFF1FEE0FFF1FEE0FFF1F8E0FB1
:101450009F1FFC01EB52F84F0180F281E02D868145
:1014600097819093FA078093F9070895CF93DF93BC
:10147000EB012091F9073091FA07B901645F7F4FC2
:101480000E941B018091F9079091FA0702960E9431
:101490004C01CF3F8FEFD80759F46091F907709155
:1014A000FA076E5F7F4F83EA97E00E94FA0008C058
:1014B0008091A0079091A1078C0F9D1F0E94880624
:1014C000DF91CF9108950F931F93CF93DF93DC01AA
:1014D0001596ED91FC911697C681D7818E01045F18
:1014E0001F4FC8010E944C018091990781111CC0B7
:1014F0000A501109C8010E944C012E8980919F0752
:10150000821710F420939F0730E0C901880F991FBC
:10151000880F991F880F991F820F931FB8018B5254
:10152000984F0E94FA0005C0B80186EB97E00E9430
:10153000FA00E091F907F091FA079E8986898917E8
:1015400020F481E080939C0701C080E0DF91CF917F
:101550001F910F91089520919B07FC0120832091FA
:10156000A0073091A1073283218308950FB6F89424
:101570000F924091A0075091A107DB012D913C9162
:101580002F3FBFEF3B0719F1E0919B07DC01FC9176
:10159000FE1739F01196ED91FC9112974E175F07E7
:1015A000C0F4DC011196ED91FC911297DA01AE1BAB
:1015B000BF0BA217B30778F4DB01E41BF50B2E0F6A
:1015C0003F1F2D933C930E94AB0A80E005C080E052
:1015D00003C081E001C081E00F900FBE089581E05B
:1015E00080939C0708951F920F920FB60F921124BB
:1015F0002F933F934F935F936F937F938F939F931B
:10160000AF93BF93EF93FF938091FB079091FC07FB
:10161000892B29F0E091FB07F091FC070995FF91D8
:10162000EF91BF91AF919F918F917F916F915F915A
:101630004F913F912F910F900FBE0F901F901895D3
:101640001F920F920FB60F9211242F933F934F9337
:101650005F936F937F938F939F93AF93BF93EF931A
:10166000FF938091FD079091FE07892B29F0E0916F
:10167000FD07F091FE070995FF91EF91BF91AF91A2
:101680009F918F917F916F915F914F913F912F919A
:101690000F900FBE0F901F9018951092C50087E60F
:1016A0008093C4008CE18093C10086E08093C200E7
:1016B0000895E0ECF0E0908195FFFDCF8093C600A7
:1016C0000895CF93DF93EC018881882331F0219630
:1016D0000E94590B89918111FBCFDF91CF91089521
:1016E000FB01DC0102C001900D9241505040D8F73F
:0616F0000895F894FFCFFD
:1016F600DB05FFFF51756575652073686F756C6452
:1017060020626520656D707479210D0A005265634B
:101716006569766564203D2000436F756C64206EB4
:101726006F7420726563656976652066726F6D20D9
:101736007468652071756575652E0D0A0073656E92
:10174600646572200D0A00436F756C64206E6F74B9
:101756002073656E6420746F2074686520717565EA
:1017660075652E0074310073656E64310074320045
:1017760073656E643200726563310054686520716A
:101786007565756520636F756C64206E6F74206275
:10179600652063726561746564200D200A00494402
:0417A6004C450000AE
:00000001FF
