:100000000C9434000C945F0B0C948C0B0C945100EA
:100010000C9451000C9451000C9451000C9451001C
:100020000C9451000C9451000C9451000C94EF026C
:100030000C9451000C9451000C9451000C945100FC
:100040000C9451000C9451000C9451000C945100EC
:100050000C9451000C9451000C9451000C945100DC
:100060000C9451000C94510011241FBECFEFD8E026
:10007000DEBFCDBF11E0A0E0B1E0EEECF7E102C0E1
:1000800005900D92A23EB107D9F728E0A2EEB1E0AB
:1000900001C01D92A733B207E1F70E94DB000C9468
:1000A000E50B0C940000CF93DF9300D000D0CDB7C8
:1000B000DEB70E9491079C838B83809135089091D5
:1000C00036080E94EB05882321F08EE091E00E9423
:1000D000CD0B20E041E250E0BE016F5F7F4F809189
:1000E0003508909136080E942805813069F48EE227
:1000F00091E00E94CD0B89819A810E94CD0B8BE209
:1001000091E00E94CD0B04C085E491E00E94CD0BEC
:1001100068EE73E0CE0103960E94DF08CECF0E9406
:100120009B074091310850913208609133087091DB
:100130003408A0E0B0E0841B950BA60BB70B853FFD
:100140009140A105B105B0F1E091E201F091E30128
:10015000EE0FFF1FE050FF4F6081718120E040E013
:1001600050E080913508909136080E94F00489E6AD
:1001700091E00E94CD0B0E949B07A0E0B0E080932D
:10018000310890933208A0933308B09334088091DB
:10019000E2019091E30101969093E3018093E201E3
:1001A0008091E2019091E301059724F01092E30120
:1001B0001092E2010895F89441E050E06FE870E099
:1001C00080E00E943C0B0E94B90B40E062E085E0B9
:1001D0000E94C4049093360880933508892BA9F0B7
:1001E000A12CB12CC12CD12CE12CF12C02E020E06F
:1001F00030E040E051E066E871E083E590E00E9485
:10020000490678940E945C0704C08FE891E00E9440
:10021000CD0BFFCFFC010396928381832FEF3FEF3D
:100220003483238396838583908787831082089500
:10023000FC01118610860895CF93DF939C01FB018A
:10024000DC011196CD91DC911297D383C2838C810E
:100250009D81958384838C819D81DC0113967C93A1
:100260006E9312977D836C8331872087F90180819B
:100270008F5F8083DF91CF910895CF93DF93EB0160
:10028000488159814F3F2FEF520721F4FC01A7818C
:10029000B0850DC0DC01139601C0DF011296ED910F
:1002A000FC9113972081318142175307B0F71296C2
:1002B000ED91FC911397FB83EA83D583C483BD83BF
:1002C000AC831396DC93CE93129799878887FC01B1
:1002D00020812F5F2083DF91CF910895CF93DF930B
:1002E000FC01A085B185C281D381848195819D83E4
:1002F0008C83C481D581828193819B838A8311966B
:10030000CD91DC911297CE17DF0731F48C819D815E
:1003100012969C938E931197118610868C91815022
:100320008C93DF91CF91089531E1FC0130833197B7
:1003300022E220833197A3E3A08331976083319732
:10034000708331971082319760E860833197108213
:10035000319762E06083319763E06083319764E0B6
:100360006083319765E06083319766E06083319701
:1003700067E06083319768E06083319769E060836C
:10038000319760E1608331973083319732E1308378
:10039000319733E13083319734E13083319735E160
:1003A0003083319736E13083319737E130833197AD
:1003B00038E13083319739E13083319730E230834F
:1003C000319731E2308331972083319723E22083C4
:1003D0003197408331975083319726E220833197BC
:1003E00027E22083319728E22083319729E2208376
:1003F000319720E32083319721E320838697089566
:10040000109289008CE7809388008BE080938100B4
:10041000EFE6F0E0808182608083A0912B08B091AC
:100420002C08CD91CDBFDD91DEBFFF91EF91DF9123
:10043000CF91BF91AF919F918F917F916F915F917C
:100440004F913F912F911F910F91FF90EF90DF906F
:10045000CF90BF90AF909F908F907F906F905F9064
:100460004F903F902F901F900F900FBE0F900895C8
:1004700081E008950F920FB6F8940F921F92112405
:100480002F923F924F925F926F927F928F929F92A4
:10049000AF92BF92CF92DF92EF92FF920F931F9392
:1004A0002F933F934F935F936F937F938F939F937C
:1004B000AF93BF93CF93DF93EF93FF93A0912B085C
:1004C000B0912C080DB60D920EB60D920E945E09E9
:1004D000A0912B08B0912C08CD91CDBFDD91DEBF4E
:1004E000FF91EF91DF91CF91BF91AF919F918F914C
:1004F0007F916F915F914F913F912F911F910F913C
:10050000FF90EF90DF90CF90BF90AF909F908F9033
:100510007F906F905F904F903F902F901F900F9023
:100520000FBE0F9008950F920FB6F8940F921F927E
:1005300011242F923F924F925F926F927F928F92EF
:100540009F92AF92BF92CF92DF92EF92FF920F9362
:100550001F932F933F934F935F936F937F938F934B
:100560009F93AF93BF93CF93DF93EF93FF93A091AC
:100570002B08B0912C080DB60D920EB60D920E946C
:10058000A00781110E945E09A0912B08B0912C0850
:10059000CD91CDBFDD91DEBFFF91EF91DF91CF9186
:1005A000BF91AF919F918F917F916F915F914F918B
:1005B0003F912F911F910F91FF90EF90DF90CF907F
:1005C000BF90AF909F908F907F906F905F904F9073
:1005D0003F902F901F900F900FBE0F9008950E9494
:1005E000930218950F931F93CF93DF93EC010E9412
:1005F0008B078091E40181111DC0E9EEF1E08EEEE0
:1006000091E09183808313821282E5EEF1E08BED1D
:1006100095E09383828311821082ADEEB1E014964F
:100620009C938E9313971296FC93EE93119781E00F
:100630008093E401209709F45FC09E012C5F3F4F37
:100640002396CA3DD54008F05AC0E091E901F091E7
:10065000EA01A9EEB1E002C0DF01FC0182819381D1
:100660008217930720F4808191810097A9F7C1E058
:10067000E53EFC0709F446C0CD91DC9111978E014F
:100680000C5F1F4F808191818D939C938281938118
:10069000821B930B8930910510F1BF01620F731F0C
:1006A000DB0113969C938E931297338322831296C9
:1006B0004D915C91139789EE91E001C0CD01EC0161
:1006C000A881B98112962D913C9113972417350773
:1006D000A8F3EB01B983A883DC016D937C9380912F
:1006E0000A0190910B0122813381821B930B90931D
:1006F0000B0180930A0108C000E010E005C000E093
:1007000010E002C000E010E00E945D08C801DF9127
:10071000CF911F910F9108950F931F93CF93DF9364
:10072000009741F1EC018C01045011090E948B07E4
:10073000F80142815381A9EEB1E001C0DF01ED91E2
:10074000FC9111972281338124173507B8F3249740
:10075000F983E8830D931C9320910A0130910B01DA
:100760008A819B81820F931F90930B0180930A01D2
:100770000E945D08DF91CF911F910F9108951F9303
:10078000CF93DF93EC01142F8C8D81110CC08881E5
:100790009981892B09F047C08A819B810E94EA0ACE
:1007A0001B821A8247C0411118C0482F50E08C812B
:1007B0009D810E94DC0B2C8D8C819D81820F911D6F
:1007C0009D838C832A813B818217930770F18881F6
:1007D00099819D838C8380E02DC0482F50E08E81CD
:1007E0009F810E94DC0B8C8D90E091958195910901
:1007F0002E813F81280F391F3F832E8348815981E5
:100800002417350730F42A813B81820F931F9F8381
:100810008E83123061F48A8D882359F08A8D81503D
:100820008A8F80E007C080E005C080E003C080E0E0
:1008300001C080E09A8D9F5F9A8FDF91CF911F91C9
:100840000895FC01448D4423A9F050E026813781AE
:10085000240F351F37832683828193812817390718
:1008600020F08081918197838683CB016681778197
:100870000E94DC0B08950F931F93CF93DF93EC013D
:100880000FB6F8940F928E8D1816BCF489898111D9
:1008900005C013C09989911104C00FC08E010F5E6D
:1008A0001F4FC8010E94F80981110E94840A9E8D81
:1008B00091509E8F9E8D19166CF38FEF8E8F0F9037
:1008C0000FBE0FB6F8940F928D8D1816BCF4888564
:1008D000811105C013C09885911104C00FC08E010D
:1008E000085F1F4FC8010E94F80981110E94840A05
:1008F0009D8D91509D8F9D8D19166CF38FEF8D8F6F
:100900000F900FBEDF91CF911F910F910895CF935C
:10091000DF93EC010FB6F8940F92488159812C8D2A
:1009200030E07B8D729FC001739F900D1124FA01FE
:10093000E80FF91FFB83EA831A8E5D834C83821BC9
:10094000930B840F951F9F838E838FEF8D8F8E8FD8
:1009500061110CC08885882389F0CE0108960E9419
:10096000F809813059F40E943A0208C0CE01089675
:100970000E940A01CE0141960E940A010F900FBE0B
:1009800081E0DF91CF9108950F931F93CF93DF9371
:10099000082F162F6623B9F0869FC0011124809678
:1009A0000E94F202EC01009721F414C0D983C8839D
:1009B00003C04F96998388830B8F1C8F61E0CE0113
:1009C0000E94870407C08FE190E00E94F202EC01D0
:1009D000892B61F7CE01DF91CF911F910F9108957F
:1009E0000F931F93CF93DF93FA01DC015A965C912A
:1009F0005A975B963C91531710F02230E9F4422F3E
:100A00008F01EC010E94BF038E8D8F3F81F4898995
:100A10008823A1F0CE0141960E94F809882381F035
:100A20000115110579F081E0F80180830CC08E8DED
:100A30008F5F8E8F81E007C080E005C081E003C03A
:100A400081E001C081E0DF91CF911F910F91089566
:100A50009F92AF92BF92CF92DF92EF92FF920F934D
:100A60001F93CF93DF9300D000D01F92CDB7DEB796
:100A70008C016B015D834C83922EB12CAA24A3942C
:100A80007C0181E1E80EF11C0FB6F8940F92F80199
:100A9000928D992399F1E680F780B601C8010E94F2
:100AA000210491101AC0F801828D8150828F8081BB
:100AB0009181892B29F40E942A0BF8019383828368
:100AC000F80180858823B1F0C80108960E94F809D2
:100AD000813081F40E943A020DC0F801F782E6826B
:100AE0008189882339F0C80141960E94F809811153
:100AF0000E943A020F900FBE81E05CC04C815D8184
:100B0000452B21F40F900FBE80E054C0B11005C0FA
:100B1000CE0101960E94400ABA2C0F900FBE0E948F
:100B20008B070FB6F8940F92F801858D8F3F09F46B
:100B3000158EF801968D9F3F09F4168E0F900FBE0B
:100B4000BE016C5F7F4FCE0101960E944B0A81115E
:100B50002BC00FB6F8940F92F801828D0F900FBE44
:100B600081111CC080819181892B49F40FB6F894C2
:100B70000F92828193810E94880A0F900FBE6C8130
:100B80007D81C7010E94CB09C8010E943B040E94DD
:100B90005D08811179CF0E943A0276CFC8010E9488
:100BA0003B040E945D0870CFC8010E943B040E9474
:100BB0005D0880E00F900F900F900F900F90DF91E5
:100BC000CF911F910F91FF90EF90DF90CF90BF904A
:100BD000AF909F9008950FB6F8940F92FC01828D0C
:100BE0000F900FBE0895E091F307F091F407808114
:100BF000811107C08FEF9FEF90930D0180930C013F
:100C00000895E091F307F091F4070580F681E02D57
:100C10000680F781E02D8281938190930D0180936E
:100C20000C010895CF93DF93EC01E0912B08F09134
:100C30002C08938382838091D0079091D107C817A5
:100C4000D90768F460912B0870912C088091F10706
:100C50009091F2076E5F7F4F0E943D0117C0609137
:100C60002B0870912C088091F3079091F4076E5F28
:100C70007F4F0E943D0180910C0190910D01C8179A
:100C8000D90720F4D0930D01C0930C01DF91CF91CF
:100C900008954F925F926F927F928F929F92AF9240
:100CA000BF92CF92DF92EF92FF920F931F93CF9359
:100CB000DF934C01EB015A012901C114D10439F42D
:100CC000CA010E94F2026C01892B09F4E3C088E298
:100CD00090E00E94F2023C01009779F0FC01D08E76
:100CE000C78AF1E0AF1AB108CA0CDB1C8881F30196
:100CF000818F8881811105C014C0C6010E948C03B8
:100D0000C9C0D3015A96FE0131969E01285F3F4F1C
:100D1000EF0181918D938881882319F0E217F30701
:100D2000B9F7F30110A2102F043008F013E0F3011B
:100D3000168B11A312A2E3012296CE010E94180184
:100D4000C3010C960E941801F3017186608684E04D
:100D500090E0811B910995878487738A628A13A228
:100D600014A215A216A217A2A201B401C6010E94E4
:100D70009401F30191838083E114F10419F0F701E8
:100D8000718260820FB6F8940F928091D2078F5FC4
:100D90008093D20780912B0890912C08892BD1F554
:100DA00070922C0860922B088091D207813009F054
:100DB00040C087E098E00E940A0180E198E00E942C
:100DC0000A0189E198E00E940A0182E298E00E940B
:100DD0000A018EEF97E00E940A0185EF97E00E94DA
:100DE0000A0188EE97E00E940A018FED97E00E94C9
:100DF0000A0185ED97E00E940A018EEF97E090933B
:100E0000F4078093F30785EF97E09093F2078093C0
:100E1000F1070FC08091CE0781110BC0E0912B0824
:100E2000F0912C088689081720F070922C086092A7
:100E30002B088091CA078F5F8093CA07F3018689C8
:100E40009091CF07981710F48093CF0790E09C0102
:100E5000220F331F220F331F220F331F820F931FC6
:100E6000BE01895F974F0E941C010F900FBE8091B9
:100E7000CE07882359F0E0912B08F0912C08868941
:100E8000801730F40E943A0281E005C081E003C07F
:100E900081E001C08FEFDF91CF911F910F91FF9003
:100EA000EF90DF90CF90BF90AF909F908F907F900A
:100EB0006F905F904F900895AF92BF92CF92DF9264
:100EC000EF92FF920F93A12CB12CC12CD12C0F2E9D
:100ED000F3EDEF2EF7E0FF2EF02D00E020E030E004
:100EE00045E550E06CED71E081E299E00E94490631
:100EF000813049F4F8948093CE071092D107109274
:100F0000D0070E9400020F91FF90EF90DF90CF90EA
:100F1000BF90AF9008958091C9078F5F8093C907F4
:100F200008950FB6F8940F928091D0079091D10751
:100F30000F900FBE08958091D0079091D10708952A
:100F4000CF92DF92EF92FF920F931F93CF93DF9395
:100F50008091C90781119BC08091D0079091D107E2
:100F600001969093D1078093D007E090D007F0903E
:100F7000D107E114F104B9F48091F3079091F407DB
:100F80002091F1073091F2073093F4072093F30793
:100F90009093F2078093F1078091CB078F5F809346
:100FA000CB070E94F30580910C0190910D01E8168A
:100FB000F90610F4D12C53C0D12CCC24C394E09169
:100FC000F307F091F4079081911107C08FEF9FEF25
:100FD00090930D0180930C0142C0E091F307F091D2
:100FE000F4070580F681E02DC681D7812A813B81F7
:100FF000E216F30628F430930D0120930C012FC064
:101000008E010E5F1F4FC8010E946E018C899D8961
:10101000892B21F0CE010C960E946E012E898091C1
:10102000CF07821710F42093CF0730E0C901880F53
:10103000991F880F991F880F991F820F931FB8015E
:10104000895F974F0E941C01E0912B08F0912C08BA
:101050009E898689981708F4B2CFDC2CB0CFE09136
:101060002B08F0912C08868990E0FC01EE0FFF1F01
:10107000EE0FFF1FEE0FFF1F8E0F9F1FFC01E95F9A
:10108000F74F8081823048F0DD24D39406C08091F0
:10109000CD078F5F8093CD07D12C8091CC0788231B
:1010A00011F0DD24D3948D2DDF91CF911F910F91FD
:1010B000FF90EF90DF90CF900895DF92EF92FF9234
:1010C0000F931F93CF93DF930FB6F8940F928091F5
:1010D000C90781508093C9078091C907811162C0F7
:1010E0008091D207811133C060C0D7011596ED9170
:1010F000FC911697C681D781CE010C960E946E0195
:101100008E010E5F1F4FC8010E946E012E898091D3
:10111000CF07821710F42093CF0730E0C901880F62
:10112000991F880F991F880F991F820F931FB8016D
:10113000895F974F0E941C01E0912B08F0912C08C9
:101140009E898689981758F0D092CC0708C00F2E38
:10115000F8EEEF2EF7E0FF2EF02DDD24D394F7010B
:1011600080818111C2CF8091CD07882399F0809131
:10117000CD07882379F0C1E00E94A0078111C093B8
:10118000CC078091CD0781508093CD078091CD070A
:101190008111F2CF8091CC07813031F40E943A0264
:1011A00081E003C080E001C080E00F900FBEDF91BE
:1011B000CF911F910F91FF90EF90DF9008950F93C3
:1011C0001F93CF93DF938C01EB010E948B078091DB
:1011D000D0079091D107F80120813181C20FD31F30
:1011E0008217930748F4C217D30710F5D183C08341
:1011F0008C179D0790F407C0C217D307A8F08C176F
:101200009D0790F015C080912B0890912C080296B4
:101210000E946E01CE010E9412060E945D0881119B
:101220000BC00E943A0208C0F801D183C083EBCF03
:10123000F801D183C083F1CFDF91CF911F910F913E
:1012400008950FED17E00F2EF7E0EF2EF8E0FF2ED8
:10125000F02D29C00E948B07D801CC910E945D0817
:10126000CC2309F10FB6F8940F92D8011596ED91A1
:10127000FC911697C681D781CE0102960E946E011D
:101280008091D20781508093D2078091DE078150F0
:101290008093DE070F900FBE8F89988D0E948C037C
:1012A000CE010E948C038091DE078111D3CFF7011C
:1012B00080818230C0F30E943A02F5CF8091C90745
:1012C000882321F081E08093CC0708951092CC0709
:1012D0008091CF0790E0FC01EE0FFF1FEE0FFF1F84
:1012E000EE0FFF1F8E0F9F1FFC01E95FF74F8081FC
:1012F000811117C08091CF0781508093CF078091D3
:10130000CF0790E0FC01EE0FFF1FEE0FFF1FEE0F67
:10131000FF1F8E0F9F1FFC01E95FF74F808188231D
:1013200049F38091CF0790E09C01220F331F220FD9
:10133000331F220F331F280F391FD901A95FB74F61
:101340001196ED91FC9112970280F381E02D129697
:10135000FC93EE931197265F374FE217F30729F4BA
:1013600022813381FD0132832183FC01EE0FFF1FB7
:10137000EE0FFF1FEE0FFF1F8E0F9F1FFC01E95F97
:10138000F74F0180F281E02D8681978190932C08A0
:1013900080932B080895CF93DF93EB0120912B08C6
:1013A00030912C08B901645F7F4F0E943D0180910C
:1013B0002B0890912C0802960E946E01CF3F8FEF70
:1013C000D80759F460912B0870912C086E5F7F4FFD
:1013D00085ED97E00E941C0108C08091D007909194
:1013E000D1078C0F9D1F0E941206DF91CF910895A7
:1013F0000F931F93CF93DF93DC011596ED91FC9132
:101400001697C681D7818E01045F1F4FC8010E94C5
:101410006E018091C90781111CC00A501109C801D1
:101420000E946E012E898091CF07821710F42093BD
:10143000CF0730E0C901880F991F880F991F880FC7
:10144000991F820F931FB801895F974F0E941C015B
:1014500005C0B80188EE97E00E941C01E0912B08BE
:10146000F0912C089E898689891720F481E0809369
:10147000CC0701C080E0DF91CF911F910F910895BB
:101480002091CB07FC0120832091D0073091D10718
:101490003283218308950FB6F8940F924091D007BC
:1014A0005091D107DB012D913C912F3FBFEF3B07BE
:1014B00019F1E091CB07DC01FC91FE1739F0119690
:1014C000ED91FC9112974E175F07C0F4DC01119665
:1014D000ED91FC911297DA01AE1BBF0BA217B30777
:1014E00078F4DB01E41BF50B2E0F3F1F2D933C938B
:1014F0000E94400A80E005C080E003C081E001C096
:1015000081E00F900FBE089581E08093CC0708958D
:101510000F931F93CF93DF93FC01892B09F455C0E0
:101520002689A0912B08B0912C0856968C912817EB
:1015300008F04BC084859585992364F0A0912B0811
:10154000B0912C0856963C9184E090E0831B910961
:101550009587848730E0C901880F991F880F991FEC
:10156000880F991F280F391F295F374F8285938570
:101570008217930719F58F01EF012296CE010E9481
:101580006E01E0912B08F0912C082689F801268B3A
:101590008091CF07821710F42093CF0730E0C90164
:1015A000880F991F880F991F880F991F820F931F0B
:1015B000BE01895F974F0E941C0107C0A0912B08B4
:1015C000B0912C0856968C91868BDF91CF911F910C
:1015D0000F9108950F931F93CF93DF93FC01892BF5
:1015E00079F182A1815082A3268991A1291751F115
:1015F00081112AC0EF018F010E5F1F4FC8010E94A9
:101600006E0129A12E8B44E050E0421B51095D87F9
:101610004C878091CF07821710F42093CF0730E0DA
:10162000C901880F991F880F991F880F991F820F72
:10163000931FB801895F974F0E941C0181E005C08C
:1016400080E003C080E001C080E0DF91CF911F9176
:101650000F91089580912B0890912C08892B39F0D7
:10166000E0912B08F0912C0882A18F5F82A38091DA
:101670002B0890912C080895823000F5E82FF0E0B7
:10168000EE0FFF1FE35DF74F71836083882319F02E
:10169000813049F00895E9E6F0E080818C7F482BA5
:1016A0004083E89A0895E9E6F0E08081440F551FF1
:1016B000440F551F837F482B4083E99A08951F925A
:1016C0000F920FB60F9211242F933F934F935F9376
:1016D0006F937F938F939F93AF93BF93EF93FF93FA
:1016E00080912D0890912E08892B29F0E0912D08EA
:1016F000F0912E080995FF91EF91BF91AF919F91C5
:101700008F917F916F915F914F913F912F910F90AA
:101710000FBE0F901F9018951F920F920FB60F9249
:1017200011242F933F934F935F936F937F938F93E6
:101730009F93AF93BF93EF93FF9380912F08909166
:101740003008892B29F0E0912F08F0913008099595
:10175000FF91EF91BF91AF919F918F917F916F9189
:101760005F914F913F912F910F900FBE0F901F905F
:1017700018951092C50087E68093C4008CE1809391
:10178000C10086E08093C2000895E0ECF0E0908113
:1017900095FFFDCF8093C6000895CF93DF93EC01B2
:1017A0008881882331F021960E94C50B899181118F
:1017B000FBCFDF91CF910895FB01DC0102C00190C6
:0E17C0000D9241505040D8F70895F894FFCF95
:1017CE00AE01B501BC01C301CA01DB05FFFF5175B6
:1017DE006575652073686F756C6420686176652029
:1017EE006265656E20656D707479210D0A00526513
:1017FE006365697665643D2073797374656D2072D7
:10180E00756E732000436F756C64206E6F7420725A
:10181E006563656976652066726F6D2074686520F4
:10182E0071756575652E0D0A00436F756C64206EBB
:10183E006F742073656E6420746F207468652071F8
:10184E00756575652E00526563656976657200541F
:10185E00686520717565756520636F756C64206EA3
:10186E006F742062652063726561746564005472E2
:10187E0061636B3100547261636B32005472616349
:10188E006B3300547261636B3400547261636B3559
:10189E0000747275650066616C73650049444C4551
:0218AE00000038
:00000001FF
