:100000000C9434000C9451000C9451000C94510049
:100010000C9451000C9451000C9451000C9451001C
:100020000C9451000C9451000C9451000C948802D3
:100030000C9451000C9451000C9451000C945100FC
:100040000C9451000C9451000C9451000C945100EC
:100050000C9451000C9451000C9451000C945100DC
:100060000C9451000C94510011241FBECFEFD8E026
:10007000DEBFCDBF11E0A0E0B1E0E4E4FEE002C0ED
:1000800005900D92A431B107D9F727E0A4E1B1E0C2
:1000900001C01D92A235B207E1F70E9483000C94C3
:1000A00020070C940000CF93DF9300D0CDB7DEB7CC
:1000B0000E94EB049A8389832B9A60E170E0CE0161
:1000C00001960E9434062B9860E170E0CE01019603
:1000D0000E943406F1CFCF93DF9300D0CDB7DEB7C7
:1000E0000E94EB049A8389832D9A69E270E0CE0125
:1000F00001960E9434062D9869E270E0CE010196C7
:100100000E943406F1CF8FEF84B9A12CB12CC12C01
:10011000D12CE12CF12C01E020E030E040E051E076
:1001200064E071E083E590E00E94AE0320E030E0FF
:1001300040E051E069E071E08BE690E00E94AE03A0
:100140000E94BA04FFCFFC010396928381832FEFB4
:100150003FEF348323839683858390878783108240
:100160000895FC01118610860895CF93DF939C01BA
:10017000FB01DC011196CD91DC911297D383C283F0
:100180008C819D81958384838C819D81DC01139674
:100190007C936E9312977D836C8331872087F9015E
:1001A00080818F5F8083DF91CF910895CF93DF931C
:1001B000EB01488159814F3F2FEF520721F4FC0199
:1001C000A781B0850DC0DC01139601C0DF01129636
:1001D000ED91FC9113972081318142175307B0F7BD
:1001E0001296ED91FC911397FB83EA83D583C48328
:1001F000BD83AC831396DC93CE931297998788873F
:10020000FC0120812F5F2083DF91CF910895CF9350
:10021000DF93FC01A085B185C281D3818481958162
:100220009D838C83C481D581828193819B838A83C2
:100230001196CD91DC911297CE17DF0731F48C81A6
:100240009D8112969C938E931197118610868C91A6
:1002500081508C93DF91CF91089531E1FC0130837F
:10026000319722E220833197A3E3A0833197608303
:100270003197708331971082319760E860833197AE
:100280001082319762E06083319763E06083319739
:1002900064E06083319765E06083319766E0608356
:1002A000319767E06083319768E06083319769E058
:1002B0006083319760E1608331973083319732E119
:1002C0003083319733E13083319734E13083319794
:1002D00035E13083319736E13083319737E1308330
:1002E000319738E13083319739E13083319730E20B
:1002F0003083319731E2308331972083319723E285
:1003000020833197408331975083319726E22083B1
:10031000319727E22083319728E22083319729E221
:100320002083319720E32083319721E32083869730
:100330000895109289008CE7809388008BE0809369
:100340008100EFE6F0E0808182608083A091500719
:10035000B0915107CD91CDBFDD91DEBFFF91EF91FF
:10036000DF91CF91BF91AF919F918F917F916F91CD
:100370005F914F913F912F911F910F91FF90EF90BF
:10038000DF90CF90BF90AF909F908F907F906F90B5
:100390005F904F903F902F901F900F900FBE0F9047
:1003A000089581E008950F920FB6F8940F921F926E
:1003B00011242F923F924F925F926F927F928F9271
:1003C0009F92AF92BF92CF92DF92EF92FF920F93E4
:1003D0001F932F933F934F935F936F937F938F93CD
:1003E0009F93AF93BF93CF93DF93EF93FF93A0912E
:1003F0005007B09151070DB60D920EB60D920E94A6
:10040000B306A0915007B0915107CD91CDBFDD91BA
:10041000DEBFFF91EF91DF91CF91BF91AF919F919F
:100420008F917F916F915F914F913F912F911F918C
:100430000F91FF90EF90DF90CF90BF90AF909F9083
:100440008F907F906F905F904F903F902F901F9074
:100450000F900FBE0F9008950F920FB6F8940F9261
:100460001F9211242F923F924F925F926F927F9230
:100470008F929F92AF92BF92CF92DF92EF92FF92B4
:100480000F931F932F933F934F935F936F937F939C
:100490008F939F93AF93BF93CF93DF93EF93FF938C
:1004A000A0915007B09151070DB60D920EB60D9266
:1004B0000E94F50481110E94B306A0915007B091EB
:1004C0005107CD91CDBFDD91DEBFFF91EF91DF915F
:1004D000CF91BF91AF919F918F917F916F915F91DC
:1004E0004F913F912F911F910F91FF90EF90DF90CF
:1004F000CF90BF90AF909F908F907F906F905F90C4
:100500004F903F902F901F900F900FBE0F90089527
:100510000E942C0218950F931F93CF93DF93EC0149
:100520000E94E5048091140181111DC0E9E1F1E010
:100530008EE191E09183808313821282E5E1F1E004
:100540008BED95E09383828311821082ADE1B1E05F
:1005500014969C938E9313971296FC93EE93119797
:1005600081E080931401209709F45FC09E012C5F05
:100570003F4F2396CA3DD54008F05AC0E09119017B
:10058000F0911A01A9E1B1E002C0DF01FC01828112
:1005900093818217930720F4808191810097A9F7B6
:1005A000C1E0E531FC0709F446C0CD91DC9111971B
:1005B0008E010C5F1F4F808191818D939C9382816E
:1005C0009381821B930B8930910510F1BF01620F5B
:1005D000731FDB0113969C938E93129733832283B0
:1005E00012964D915C91139789E191E001C0CD0184
:1005F000EC01A881B98112962D913C911397241793
:100600003507A8F3EB01B983A883DC016D937C93D4
:10061000809100019091010122813381821B930B13
:10062000909301018093000108C000E010E005C034
:1006300000E010E002C000E010E00E94B205C80136
:10064000DF91CF911F910F9108950F931F93CF9337
:10065000DF93009741F1EC018C01045011090E94D5
:10066000E504F80142815381A9E1B1E001C0DF0155
:10067000ED91FC9111972281338124173507B8F34E
:100680002497F983E8830D931C9320910001309106
:1006900001018A819B81820F931F909301018093B6
:1006A00000010E94B205DF91CF911F910F91089533
:1006B000E0911807F09119078081811107C08FEF31
:1006C0009FEF90930301809302010895E091180732
:1006D000F09119070580F681E02D0680F781E02D65
:1006E0008281938190930301809302010895CF93B7
:1006F000DF93EC01E0915007F091510793838283DF
:100700008091000790910107C817D90768F460919C
:1007100050077091510780911607909117076E5FEF
:100720007F4F0E94D60017C060915007709151070B
:1007300080911807909119076E5F7F4F0E94D60035
:100740008091020190910301C817D90720F4D0933A
:100750000301C0930201DF91CF9108954F925F9200
:100760006F927F928F929F92AF92BF92CF92DF92C1
:10077000EF92FF920F931F93CF93DF934C01EB0106
:100780005A012901C114D10439F4CA010E948B0213
:100790006C01892B09F4DCC086E290E00E948B0298
:1007A0003C01009779F0FC01D08EC78AF1E0AF1AC6
:1007B000B108CA0CDB1C8881F301818F888181110B
:1007C00005C014C0C6010E942503C2C0D3015A96B9
:1007D000FE0131969E01285F3F4FEF0181918D937D
:1007E0008881882319F0E217F307B9F7F30110A203
:1007F000102F043008F013E0F301168BE30122966A
:10080000CE010E94B100C3010C960E94B100F30119
:100810007186608684E090E0811B910995878487CA
:10082000738A628A11A212A213A214A215A2A201B3
:10083000B401C6010E942D01F30191838083E1146C
:10084000F10419F0F701718260820FB6F8940F92EB
:10085000809102078F5F80930207809150079091EB
:100860005107892BA9F5709251076092500780912A
:1008700002078130E1F58CE297E00E94A30085E356
:1008800097E00E94A3008EE397E00E94A30087E414
:1008900097E00E94A30083E297E00E94A3008AE110
:1008A00097E00E94A3008DE097E00E94A30084E0FF
:1008B00097E00E94A30083E297E09093190780934A
:1008C00018078AE197E090931707809316070FC0E7
:1008D0008091FE0681110BC0E0915007F091510705
:1008E0008689081720F07092510760925007809116
:1008F000FA068F5F8093FA06F30186899091FF06CE
:10090000981710F48093FF0690E09C01220F331F8C
:10091000220F331F220F331F820F931FBE01845DEE
:10092000984F0E94B5000F900FBE8091FE0688235D
:1009300059F0E0915007F09151078689801730F403
:100940000E94D30181E005C081E003C081E001C0C5
:100950008FEFDF91CF911F910F91FF90EF90DF907C
:10096000CF90BF90AF909F908F907F906F905F904F
:100970004F900895AF92BF92CF92DF92EF92FF9285
:100980000F93A12CB12CC12CD12CE12CF12C00E027
:1009900020E030E045E550E06EE071E086E796E06B
:1009A0000E94AE03813049F4F8948093FE061092C1
:1009B0000107109200070E9499010F91FF90EF909C
:1009C000DF90CF90BF90AF9008958091F9068F5F30
:1009D0008093F90608950FB6F8940F92809100075E
:1009E000909101070F900FBE0895CF92DF92EF9282
:1009F000FF920F931F93CF93DF938091F90681119C
:100A00009BC0809100079091010701969093010788
:100A100080930007E0900007F0900107E114F104D3
:100A2000B9F4809118079091190720911607309119
:100A3000170730931907209318079093170780938F
:100A400016078091FB068F5F8093FB060E94580378
:100A50008091020190910301E816F90610F4D12C5F
:100A600053C0D12CCC24C394E0911807F0911907FE
:100A70009081911107C08FEF9FEF909303018093B6
:100A8000020142C0E0911807F09119070580F68134
:100A9000E02DC681D7812A813B81E216F30628F436
:100AA00030930301209302012FC08E010E5F1F4F70
:100AB000C8010E9407018C899D89892B21F0CE01F4
:100AC0000C960E9407012E898091FF06821710F470
:100AD0002093FF0630E0C901880F991F880F991FE6
:100AE000880F991F820F931FB801845D984F0E9451
:100AF000B500E0915007F09151079E8986899817BB
:100B000008F4B2CFDC2CB0CFE0915007F091510740
:100B1000868990E0FC01EE0FFF1FEE0FFF1FEE0F26
:100B2000FF1F8E0F9F1FFC01E45DF84F8081823014
:100B300048F0DD24D39406C08091FD068F5F80933A
:100B4000FD06D12C8091FC06882311F0DD24D3947E
:100B50008D2DDF91CF911F910F91FF90EF90DF903E
:100B6000CF900895DF92EF92FF920F931F93CF9350
:100B7000DF930FB6F8940F928091F906815080931D
:100B8000F9068091F906811162C0809102078111F6
:100B900033C060C0D7011596ED91FC911697C681C0
:100BA000D781CE010C960E9407018E010E5F1F4F68
:100BB000C8010E9407012E898091FF06821710F458
:100BC0002093FF0630E0C901880F991F880F991FF5
:100BD000880F991F820F931FB801845D984F0E9460
:100BE000B500E0915007F09151079E8986899817CA
:100BF00058F0D092FC0608C00F2EFDE0EF2EF7E073
:100C0000FF2EF02DDD24D394F70180818111C2CF16
:100C10008091FD06882399F08091FD06882379F064
:100C2000C1E00E94F5048111C093FC068091FD068D
:100C300081508093FD068091FD068111F2CF809155
:100C4000FC06813031F40E94D30181E003C080E0D2
:100C500001C080E00F900FBEDF91CF911F910F91E7
:100C6000FF90EF90DF9008950F931F93CF93DF9342
:100C70008C01EB010E94E50480910007909101072F
:100C8000F80120813181C20FD31F8217930748F4E6
:100C9000C217D30710F5D183C0838C179D0790F43A
:100CA00007C0C217D307A8F08C179D0790F015C096
:100CB000809150079091510702960E940701CE0142
:100CC0000E9477030E94B20581110BC00E94D301DC
:100CD00008C0F801D183C083EBCFF801D183C08372
:100CE000F1CFDF91CF911F910F91089504E017E0AC
:100CF0000F2EFCE2EF2EF7E0FF2EF02D29C00E9410
:100D0000E504D801CC910E94B205CC2309F10FB6BD
:100D1000F8940F92D8011596ED91FC911697C68123
:100D2000D781CE0102960E9407018091020781506F
:100D300080930207809103078150809303070F90EF
:100D40000FBE8F89988D0E942503CE010E94250336
:100D5000809103078111D3CFF70180818230C0F3E6
:100D60000E94D301F5CF8091F906882321F081E01C
:100D70008093FC0608951092FC068091FF0690E097
:100D8000FC01EE0FFF1FEE0FFF1FEE0FFF1F8E0F78
:100D90009F1FFC01E45DF84F8081811117C0809195
:100DA000FF0681508093FF068091FF0690E0FC01D2
:100DB000EE0FFF1FEE0FFF1FEE0FFF1F8E0F9F1F87
:100DC000FC01E45DF84F8081882349F38091FF06A0
:100DD00090E09C01220F331F220F331F220F331F7D
:100DE000280F391FD901A45DB84F1196ED91FC91E0
:100DF00012970280F381E02D1296FC93EE931197E7
:100E0000215D384FE217F30729F422813381FD0178
:100E100032832183FC01EE0FFF1FEE0FFF1FEE0F49
:100E2000FF1F8E0F9F1FFC01E45DF84F0180F281D0
:100E3000E02D868197819093510780935007089504
:040E4000F894FFCF54
:100E4400DB05FFFF6C656431006C65643200494466
:040E54004C45000009
:00000001FF
