:100000000C9434000C9451000C9451000C94510049
:100010000C9451000C9451000C9451000C9451001C
:100020000C9451000C9451000C9451000C944A050E
:100030000C9451000C9451000C9451000C945100FC
:100040000C9451000C9451000C9451000C945100EC
:100050000C9451000C9451000C9451000C945100DC
:100060000C9451000C94510011241FBECFEFD8E026
:10007000DEBFCDBF11E0A0E0B1E0E8E3F9E102C0EE
:1000800005900D92A033B107D9F727E0A0E3B1E0C6
:1000900001C01D92A437B207E1F70E9453000C94EF
:1000A0009A0C0C940000AF92BF92CF92DF92EF9225
:1000B000FF920F93CF93DF93CDB7DEB7A12CB12C76
:1000C000C12CD12CE12CF12C03E020E030E040E009
:1000D00051E064E071E083E890E00E94E406A12C26
:1000E000B12CC12CD12CE12CF12C03E020E030E02C
:1000F00040E051E06DE071E08BEB90E00E94E4069F
:100100000E944308FFCFCF93DF9300D000D0CDB73C
:10011000DEB79C838B8384E290E024E230E0F90137
:1001200020812062FC0120830E9413099A83898325
:1001300085E290E025E230E0F90120812062FC01B7
:10014000208364E670E0CE0101960E94CA0785E133
:1001500091E00E946A0C85E290E025E230E0F9012E
:1001600020812F7DFC01208364E670E0CE010196A2
:100170000E94CA07DDCFCF93DF9300D000D0CDB768
:10018000DEB79C838B8384E290E024E230E0F901C7
:1001900020812061FC0120830E9413099A838983B6
:1001A00085E290E025E230E0F90120812061FC0148
:1001B000208364E670E0CE0101960E94CA0780E2C7
:1001C00091E00E946A0C85E290E025E230E0F901BE
:1001D00020812F7EFC01208364E670E0CE01019631
:1001E0000E94CA07DDCFCF93DF9300D0CDB7DEB733
:1001F0009A83898389819A819C012D5F3F4F8981F0
:100200009A81FC013283218389819A812FEF3FEF0C
:10021000FC013483238389819A819C012D5F3F4FA8
:1002200089819A81FC013683258389819A819C0189
:100230002D5F3F4F89819A81FC0130872783898117
:100240009A81FC0110820F900F90DF91CF91089559
:10025000CF93DF9300D0CDB7DEB79A8389838981AE
:100260009A81FC01118610860F900F90DF91CF913B
:100270000895CF93DF9300D000D000D0CDB7DEB784
:100280009C838B837E836D838B819C81FC01818128
:1002900092819A8389838D819E8129813A81FC0193
:1002A0003383228389819A81FC01248135818D8168
:1002B0009E81FC013583248389819A81FC0184819C
:1002C00095812D813E81FC013383228389819A812E
:1002D0002D813E81FC01358324838D819E812B817C
:1002E0003C81FC01318720878B819C81FC018081CE
:1002F00021E0280F8B819C81FC01208326960FB67C
:10030000F894DEBF0FBECDBFDF91CF910895CF939C
:10031000DF93CDB7DEB728970FB6F894DEBF0FBED8
:10032000CDBF9E838D8378876F838F819885FC01F5
:10033000808191819C838B838B819C81019641F488
:100340008D819E81FC01878190859A8389831AC063
:100350008D819E8103969A83898307C089819A81C2
:10036000FC01828193819A83898389819A81FC012E
:1003700082819381FC01208131818B819C81821754
:10038000930760F789819A81FC01228133818F81F3
:100390009885FC01338322838F819885FC018281BB
:1003A00093812F813885FC01358324838F81988543
:1003B00029813A81FC013583248389819A812F81A7
:1003C0003885FC01338322838F8198852D813E817E
:1003D000FC01318720878D819E81FC01808121E095
:1003E000280F8D819E81FC01208328960FB6F894FA
:1003F000DEBF0FBECDBFDF91CF910895CF93DF93C6
:1004000000D000D0CDB7DEB79C838B838B819C81DD
:10041000FC01808591859A8389838B819C81FC0175
:10042000828193812B813C81F90124813581FC01FA
:10043000358324838B819C81FC01848195812B8170
:100440003C81F90122813381FC013383228389813C
:100450009A81FC01218132818B819C812817390787
:1004600051F48B819C81FC012481358189819A81A1
:10047000FC01328321838B819C81FC0111861086D3
:1004800089819A81FC0180812FEF280F89819A81CF
:10049000FC01208389819A81FC0180810F900F905B
:1004A0000F900F90DF91CF910895CF93DF93CDB749
:1004B000DEB728970FB6F894DEBF0FBECDBF9C8382
:1004C0008B837E836D8358874F838B819C8121E151
:1004D000FC0120838B819C8101979C838B838B8182
:1004E0009C8122E2FC0120838B819C8101979C836B
:1004F0008B838B819C8123E3FC0120838B819C81F6
:1005000001979C838B838D819E819A838983298126
:100510008B819C81FC0120838B819C8101979C8332
:100520008B8389819A81892F99279A83898329814D
:100530008B819C81FC0120838B819C8101979C8312
:100540008B838B819C81FC0110828B819C81019724
:100550009C838B838B819C8120E8FC0120838B8191
:100560009C8101979C838B838B819C81FC011082F1
:100570008B819C8101979C838B838B819C8122E062
:10058000FC0120838B819C8101979C838B838B81D1
:100590009C8123E0FC0120838B819C8101979C83BB
:1005A0008B838B819C8124E0FC0120838B819C8147
:1005B00001979C838B838B819C8125E0FC012083A8
:1005C0008B819C8101979C838B838B819C8126E00E
:1005D000FC0120838B819C8101979C838B838B8181
:1005E0009C8127E0FC0120838B819C8101979C8367
:1005F0008B838B819C8128E0FC0120838B819C81F3
:1006000001979C838B838B819C8129E0FC01208353
:100610008B819C8101979C838B838B819C8120E1C2
:10062000FC0120838B819C8101979C838B838B8130
:100630009C8121E1FC0120838B819C8101979C831B
:100640008B838B819C8122E1FC0120838B819C81A7
:1006500001979C838B838B819C8123E1FC01208308
:100660008B819C8101979C838B838B819C8124E16E
:10067000FC0120838B819C8101979C838B838B81E0
:100680009C8125E1FC0120838B819C8101979C83C7
:100690008B838B819C8126E1FC0120838B819C8153
:1006A00001979C838B838B819C8127E1FC012083B4
:1006B0008B819C8101979C838B838B819C8128E11A
:1006C000FC0120838B819C8101979C838B838B8190
:1006D0009C8129E1FC0120838B819C8101979C8373
:1006E0008B838B819C8120E2FC0120838B819C8108
:1006F00001979C838B838B819C8121E2FC01208369
:100700008B819C8101979C838B838B819C8122E2CE
:10071000FC0120838B819C8101979C838B838B813F
:100720009C8123E2FC0120838B819C8101979C8327
:100730008B838F8198859A83898329818B819C8182
:10074000FC0120838B819C8101979C838B83898111
:100750009A81892F99279A83898329818B819C810A
:10076000FC0120838B819C8101979C838B838B81EF
:100770009C8126E2FC0120838B819C8101979C83D4
:100780008B838B819C8127E2FC0120838B819C8160
:1007900001979C838B838B819C8128E2FC012083C1
:1007A0008B819C8101979C838B838B819C8129E227
:1007B000FC0120838B819C8101979C838B838B819F
:1007C0009C8120E3FC0120838B819C8101979C8389
:1007D0008B838B819C8121E3FC0120838B819C8115
:1007E00001979C838B838B819C8128960FB6F8940C
:1007F000DEBF0FBECDBFDF91CF910895CF93DF93C2
:10080000CDB7DEB70E94E904A0911507B091160795
:10081000CD91CDBFDD91DEBFFF91EF91DF91CF9103
:10082000BF91AF919F918F917F916F915F914F9108
:100830003F912F911F910F91FF90EF90DF90CF90FC
:10084000BF90AF909F908F907F906F905F904F90F0
:100850003F902F901F900F900FBE0F90089581E052
:10086000DF91CF9108950F920FB6F8940F921F92D7
:1008700011242F923F924F925F926F927F928F92AC
:100880009F92AF92BF92CF92DF92EF92FF920F931F
:100890001F932F933F934F935F936F937F938F9308
:1008A0009F93AF93BF93CF93DF93EF93FF93A09169
:1008B0001507B09116070DB60D920EB60D920E9457
:1008C000180AA0911507B0911607CD91CDBFDD9103
:1008D000DEBFFF91EF91DF91CF91BF91AF919F91DB
:1008E0008F917F916F915F914F913F912F911F91C8
:1008F0000F91FF90EF90DF90CF90BF90AF909F90BF
:100900008F907F906F905F904F903F902F901F90AF
:100910000F900FBE0F9008950F920FB6F8940F929C
:100920001F9211242F923F924F925F926F927F926B
:100930008F929F92AF92BF92CF92DF92EF92FF92EF
:100940000F931F932F933F934F935F936F937F93D7
:100950008F939F93AF93BF93CF93DF93EF93FF93C7
:10096000A0911507B09116070DB60D920EB60D9217
:100970000E942A09882311F00E94180AA0911507E5
:10098000B0911607CD91CDBFDD91DEBFFF91EF9104
:10099000DF91CF91BF91AF919F918F917F916F9197
:1009A0005F914F913F912F911F910F91FF90EF9089
:1009B000DF90CF90BF90AF909F908F907F906F907F
:1009C0005F904F903F902F901F900F900FBE0F9011
:1009D0000895CF93DF9300D000D000D0CDB7DEB71D
:1009E00080E49FE1A0E0B0E089839A83AB83BC837D
:1009F00089819A81AB81BC81689415F8B695A795D9
:100A0000979587951694D1F789839A83AB83BC8396
:100A100089819A81AB81BC810197A109B109898340
:100A20009A83AB83BC8389818D8389819A81AB81D1
:100A3000BC81892F9A2FAB2FBB2789839A83AB83E5
:100A4000BC8389818E8389E890E02E81FC0120831C
:100A500088E890E02D81FC0120838BE08D8381E884
:100A600090E02D81FC0120838FE690E0FC018081E5
:100A70008D838D8182608D838FE690E02D81FC01D6
:100A8000208326960FB6F894DEBF0FBECDBFDF9150
:100A9000CF9108950E948C041895CF93DF93CDB722
:100AA000DEB72E970FB6F894DEBF0FBECDBF9E8780
:100AB0008D871E821D820E947908809114078823E9
:100AC00029F40E94AD0681E0809314078D859E85F0
:100AD000892B41F084E090E02D853E85820F931FA5
:100AE0009E878D878D859E85892B09F4B8C08D855D
:100AF0009E858B3D954008F0B2C08CE097E09C83CA
:100B00008B8380910C0790910D079A8389830BC08A
:100B100089819A819C838B8389819A81FC01808160
:100B200091819A83898389819A81FC012281338111
:100B30008D859E852817390738F489819A81FC01B3
:100B400080819181892B21F789819A8180519740F9
:100B500009F485C08B819C81FC012081318184E076
:100B600090E0820F931F9E838D8389819A81FC017F
:100B7000208131818B819C81FC013183208389819B
:100B80009A81FC01228133818D859E85281B390B3A
:100B900084E090E0880F991F8217930708F04EC0F9
:100BA00029813A818D859E85820F931F9A87898737
:100BB00089819A81FC01228133818D859E85281B44
:100BC000390B89859A85FC013383228389819A8137
:100BD0002D853E85FC013383228389859A85FC011E
:100BE000828193819C878B878CE097E098878F83A5
:100BF00007C08F819885FC018081918198878F83C0
:100C00008F819885FC0180819181FC012281338153
:100C10008B859C852817390760F38F819885FC01A7
:100C20002081318189859A85FC01318320838F81E0
:100C3000988529853A85FC01318320832091000124
:100C40003091010189819A81FC0182819381A901FE
:100C5000481B590BCA0190930101809300010E9427
:100C600085088D819E812E960FB6F894DEBF0FBE4B
:100C7000CDBFDF91CF910895CF93DF93CDB7DEB78E
:100C80002A970FB6F894DEBF0FBECDBF9A8789872B
:100C900089859A859C838B8389859A85892B09F41C
:100CA00053C084E090E09195819591092B813C811E
:100CB000820F931F9C838B838B819C819E838D836A
:100CC0000E9479088D819E81FC01828193819887A1
:100CD0008F838CE097E09A83898307C089819A810A
:100CE000FC01808191819A83898389819A81FC01A9
:100CF00080819181FC01228133818F819885281721
:100D0000390760F389819A81FC01208131818D81CD
:100D10009E81FC013183208389819A812D813E81CE
:100D2000FC01318320838D819E81FC0122813381EE
:100D30008091000190910101820F931F9093010116
:100D4000809300010E9485082A960FB6F894DEBFB2
:100D50000FBECDBFDF91CF910895CF93DF9300D029
:100D600000D0CDB7DEB781E391E09A838983898192
:100D70009A8190930D0780930C0710920F071092A1
:100D80000E078BED95E09093130780931207109256
:100D900011071092100789819A819C838B838B8124
:100DA0009C812BED35E0FC01338322838B819C8178
:100DB00020E137E0FC01318320830F900F900F90EA
:100DC0000F90DF91CF910895AF92BF92CF92DF92B3
:100DD000EF92FF920F931F93CF93DF93CDB7DEB7C0
:100DE00064970FB6F894DEBF0FBECDBF9F838E838E
:100DF000798768875B874A873D872C870E87F88AC3
:100E0000EF86DA8AC98ABC8AAB8A29893A898A85B7
:100E10009B85B9010E94E20B9B838A838A819B8117
:100E2000892B09F491C08A819B81FC012789308D2F
:100E30008A859B850197820F931F9D838C834A85AA
:100E40005B852B893C89688579858A819B818A01AC
:100E50004E850E94970A4C855D852E813F818C814D
:100E60009D81B9010E9455029C018A819B81FC01F0
:100E7000318320838F859889892B39F08F859889D4
:100E80002A813B81FC01318320830FB6F8940F92B5
:100E9000809164078F5F809364078091150790911C
:100EA0001607892B69F48A819B819093160780939A
:100EB0001507809164078130B1F40E941B0B13C0A9
:100EC00080916807882379F480911507909116071F
:100ED000FC0196898E85891730F08A819B819093D9
:100EE00016078093150780916C078F5F80936C07BE
:100EF0008A819B81FC01968980916707891730F46C
:100F00008A819B81FC018689809367078A819B8106
:100F1000AC014E5F5F4F8A819B81FC018689282F3F
:100F200030E0C901880F991F880F991F880F991FFA
:100F3000820F931F895E984FBA010E94390181E0A8
:100F400089830F900FBE02C08FEF89838981813022
:100F500079F480916807882359F080911507909162
:100F60001607FC0196898E85981710F40E943304A9
:100F7000898164960FB6F894DEBF0FBECDBFDF91B6
:100F8000CF911F910F91FF90EF90DF90CF90BF9086
:100F9000AF900895CF93DF93CDB7DEB72A970FB602
:100FA000F894DEBF0FBECDBF98878F837A8769879D
:100FB00019820E94790880916507909166079B834A
:100FC0008A838F819885FC012081318189859A856A
:100FD000820F931F9D838C838F819885FC012081D4
:100FE00031818A819B8182179307A0F48F81988534
:100FF000FC01208131818C819D8182179307E8F467
:101000002C813D818A819B8182179307B0F481E016
:10101000898313C08F819885FC01208131818C8167
:101020009D818217930738F02C813D818A819B81B5
:101030008217930710F481E089838F8198852C8132
:101040003D81FC01318320838981882359F080917F
:1010500015079091160702960E94FE018C819D81D2
:101060000E94980B0E9485088E838E81882311F43C
:101070000E9433042A960FB6F894DEBF0FBECDBF90
:10108000DF91CF910895AF92BF92CF92DF92EF920E
:10109000FF920F93CF93DF931F92CDB7DEB7A12CB2
:1010A000B12CC12CD12CE12CF12C00E020E030E05F
:1010B00045E550E06AE271E087E89AE00E94E406C4
:1010C00089838981813051F4F89481E080936807A5
:1010D00010926607109265070E94FE030F90DF9141
:1010E000CF910F91FF90EF90DF90CF90BF90AF9096
:1010F0000895CF93DF93CDB7DEB780916D078F5FF3
:1011000080936D07DF91CF910895CF93DF9300D047
:101110001F92CDB7DEB719820FB6F8940F92809167
:101120006D07815080936D0780916D07882309F0CA
:1011300071C080916407882309F46CC049C0809114
:10114000560790915707FC01868197819B838A837C
:101150008A819B810C960E94FE018A819B81029666
:101160000E94FE018A819B81FC019689809167071C
:10117000891730F48A819B81FC01868980936707F7
:101180008A819B81AC014E5F5F4F8A819B81FC010C
:101190008689282F30E0C901880F991F880F991F71
:1011A000880F991F820F931F895E984FBA010E9482
:1011B00039018A819B81FC012689809115079091D4
:1011C0001607FC018689281718F081E080936A07CA
:1011D00080915107882309F0B2CF80916907882355
:1011E00089F00CC00E942A09882319F081E08093BD
:1011F0006A07809169078150809369078091690728
:10120000882381F780916A07813021F481E0898306
:101210000E9433040F900FBE89810F900F900F90A2
:10122000DF91CF910895CF93DF9300D0CDB7DEB794
:101230000FB6F8940F9280916507909166079A8394
:1012400089830F900FBE89819A810F900F90DF9153
:10125000CF910895CF93DF93CDB7DEB729970FB61F
:10126000F894DEBF0FBECDBF198280916D07882331
:1012700009F0C9C080916507909166070196909327
:1012800066078093650780916507909166079B8349
:101290008A838A819B81892BD9F480914D07909113
:1012A0004E079D838C8380914F07909150079093B8
:1012B0004E0780934D078C819D81909350078093BA
:1012C0004F0780916B078F5F80936B070E943C0CE8
:1012D00080910201909103012A813B8128173907EF
:1012E00008F477C080914D0790914E07FC018081F2
:1012F000882339F48FEF9FEF9093030180930201CD
:1013000068C080914D0790914E07FC0185819681C0
:10131000FC01868197819F838E838E819F81FC0152
:1013200082819381998788872A813B8188859985E5
:101330002817390738F4888599859093030180939D
:10134000020147C08E819F8102960E94FE018E811C
:101350009F81FC0184899589892B29F08E819F8149
:101360000C960E94FE018E819F81FC0196898091DE
:101370006707891730F48E819F81FC0186898093ED
:1013800067078E819F81AC014E5F5F4F8E819F8189
:10139000FC018689282F30E0C901880F991F880F2A
:1013A000991F880F991F820F931F895E984FBA016A
:1013B0000E9439018E819F81FC0126898091150749
:1013C00090911607FC018689281710F081E0898327
:1013D00089CF8091150790911607FC018689282FE7
:1013E00030E0C901880F991F880F991F880F991F36
:1013F000820F931F895E984FFC018081823040F0FC
:1014000081E0898305C0809169078F5F80936907B8
:1014100080916A07882311F081E089838981299668
:101420000FB6F894DEBF0FBECDBFDF91CF91089508
:10143000CF93DF9300D0CDB7DEB780916D078823BF
:1014400021F081E080936A075DC010926A0705C0B1
:101450008091670781508093670780916707282FE5
:1014600030E0C901880F991F880F991F880F991FB5
:10147000820F931F895E984FFC018081882341F37E
:1014800080916707282F30E0C901880F991F880FC6
:10149000991F880F991F820F931F895E984F9A8317
:1014A000898389819A81FC0181819281FC01228159
:1014B000338189819A81FC013283218389819A81D8
:1014C000FC012181328189819A810396281739078D
:1014D00069F489819A81FC0181819281FC012281D8
:1014E000338189819A81FC013283218389819A81A8
:1014F000FC0181819281FC0186819781909316077E
:10150000809315070F900F90DF91CF910895CF939F
:10151000DF9300D0CDB7DEB79A8389830E94580B42
:1015200080911707823010F00E943304F7CF0F9399
:101530001F93CF93DF93CDB7DEB72A970FB6F894FA
:10154000DEBF0FBECDBF9B838A837D836C834E83BA
:1015500038872F831A870987198222C08981882FAB
:1015600090E02981222F30E04C815D81240F351FCE
:10157000F90140812A813B81820F931F4996FC012A
:1015800040838981882F90E02C813D81820F931FB9
:10159000FC018081882309F406C089818F5F8983DB
:1015A00089818830D8F28A819B81FC0110A28E81CA
:1015B000843010F083E08E838A819B812E81FC0130
:1015C000268B8A819B8102960E9428018A819B81B9
:1015D0000C960E9428018A819B812A813B81FC0113
:1015E000318720878E81882F90E024E030E0281B0F
:1015F000390B8A819B81FC01358724878A819B81F5
:101600002A813B81FC01338B228B8A819B81FC01E7
:1016100011A212A213A214A28A819B81FC0115A21D
:101620002A960FB6F894DEBF0FBECDBFDF91CF91E3
:101630001F910F910895CF93DF931F92CDB7DEB71F
:10164000198213C08981282F30E0C901880F991FA2
:10165000880F991F880F991F820F931F895E984FDB
:101660000E94F30089818F5F89838981843050F3E0
:101670008BE397E00E94F30084E497E00E94F3007C
:1016800081E597E00E94F3008AE597E00E94F3006D
:101690008BE397E090934E0780934D0784E497E0A7
:1016A0009093500780934F070F90DF91CF9108954B
:1016B000CF93DF9300D01F92CDB7DEB72FC00E942B
:1016C000790890915A0781E0992309F080E0898395
:1016D0000E9485088981882309F50FB6F8940F9236
:1016E00080915F0790916007FC01868197819B83C1
:1016F0008A838A819B8102960E94FE018091640701
:1017000081508093640780916307815080936307C1
:101710000F900FBE8A819B810E94250C80916307E8
:10172000882369F60F900F900F90DF91CF91089565
:10173000CF93DF9300D0CDB7DEB79A8389838091B2
:1017400015079091160729813A81FC013383228382
:10175000809165079091660729813A81281739079A
:1017600078F480911507909116079C012E5F3F4FEA
:1017700080914F0790915007B9010E9487011DC0C9
:1017800080911507909116079C012E5F3F4F809125
:101790004D0790914E07B9010E9487018091020187
:1017A0009091030129813A812817390730F4898102
:1017B0009A8190930301809302010F900F90DF9123
:1017C000CF910895CF93DF93CDB7DEB728970FB6AB
:1017D000F894DEBF0FBECDBF9E838D8378876F8365
:1017E0008F819885892B29F48D819E810E944D05DA
:1017F00002C08F8198859C838B838B819C81892BF0
:10180000B9F086E290E00E944D059A838983898130
:101810009A81892B41F089819A812B813C81FC013D
:10182000308F278B07C08B819C810E943C0602C0B1
:101830001A82198289819A8128960FB6F894DEBFA0
:101840000FBECDBFDF91CF910895CF93DF9300D02E
:10185000CDB7DEB79A83898389819A81FC01878914
:10186000908D0E943C0689819A810E943C060F90CF
:101870000F90DF91CF910895CF93DF9300D0CDB734
:10188000DEB780914D0790914E07FC01808188233F
:1018900039F48FEF9FEF909303018093020115C0FD
:1018A00080914D0790914E07FC0185819681FC0146
:1018B000868197819A83898389819A81FC018281BB
:1018C000938190930301809302010F900F90DF9119
:1018D000CF9108950F931F93CF93DF93E0917007FB
:1018E000F0917107238121FF1BC08C01D0E0C0E083
:1018F000F80181918F016091700770917107DB0190
:101900001896ED91FC911997882331F00995892B50
:1019100079F3DFEFCFEFECCF8AE00995892B19F04F
:101920008FEF9FEF02C08D2F9C2FDF91CF911F91E2
:081930000F910895F894FFCF18
:10193800DB05FFFF477265656E4C454400426C75D8
:10194800654C4544007461736B20677265656E0071
:101958007461736B20626C75650049444C450000E6
:00000001FF
