:100000000C9434000C9451000C9451000C94510049
:100010000C9451000C9451000C9451000C9451001C
:100020000C9451000C9451000C9451000C946C02EF
:100030000C9451000C9451000C9451000C945100FC
:100040000C9451000C9451000C9451000C945100EC
:100050000C9451000C9451000C9451000C945100DC
:100060000C9451000C94510011241FBECFEFD8E026
:10007000DEBFCDBF11E0A0E0B1E0EEEBFDE002C0DD
:1000800005900D92AE31B107D9F727E0AEE1B1E0AE
:1000900001C01D92A536B207E1F70E9465000C94DD
:1000A000DD060C940000C1E085B18C2785B984EF92
:1000B00091E00E941306F8CFC2E085B18C2785B984
:1000C00088EE93E00E941306F8CF84B1836084B970
:1000D000A12CB12CC12CD12CE12CF12C01E020E081
:1000E00030E045E550E064E071E083E590E00E9497
:1000F000920302E020E030E045E550E06FE071E07F
:100100008CE590E00E9492030E94A304FFCFFC01C3
:100110000396928381832FEF3FEF3483238396836B
:1001200085839087878310820895FC01118610864D
:100130000895CF93DF939C01FB01DC011196CD91D3
:10014000DC911297D383C2838C819D8195838483B4
:100150008C819D81DC0113967C936E9312977D8335
:100160006C8331872087F90180818F5F8083DF91E5
:10017000CF910895CF93DF93EB01488159814F3F91
:100180002FEF520721F4FC01A781B0850DC0DC01DF
:10019000139601C0DF011296ED91FC911397208117
:1001A000318142175307B0F71296ED91FC911397E6
:1001B000FB83EA83D583C483BD83AC831396DC932E
:1001C000CE93129799878887FC0120812F5F208327
:1001D000DF91CF910895CF93DF93FC01A085B18586
:1001E000C281D381848195819D838C83C481D58193
:1001F000828193819B838A8311968D919C91129722
:10020000E817F90731F48481958112969C938E93B7
:100210001197118610868C9181508C93DF91CF912C
:10022000089531E1FC013083319722E22083319738
:10023000A3E3A08331976083319770833197108255
:10024000319760E8608331971082319762E0608374
:10025000319763E06083319764E06083319765E0B4
:100260006083319766E06083319767E06083319700
:1002700068E06083319769E06083319760E1608373
:1002800031973083319732E13083319733E13083D6
:10029000319734E13083319735E13083319736E15E
:1002A0003083319737E13083319738E130833197AC
:1002B00039E13083319730E23083319731E2308356
:1002C00031972083319723E2208331974083319700
:1002D0005083319726E22083319727E2208331979C
:1002E00028E22083319729E22083319720E320837D
:1002F000319721E3208386970895109289008CE737
:10030000809388008BE080938100EFE6F0E08081AD
:1003100082608083A0916307B0916407CD91CDBFC7
:10032000DD91DEBFFF91EF91DF91CF91BF91AF9152
:100330009F918F917F916F915F914F913F912F91FD
:100340001F910F91FF90EF90DF90CF90BF90AF90F3
:100350009F908F907F906F905F904F903F902F90E5
:100360001F900F900FBE0F90089581E008950F9297
:100370000FB6F8940F921F9211242F923F924F9232
:100380005F926F927F928F929F92AF92BF92CF9225
:10039000DF92EF92FF920F931F932F933F934F9310
:1003A0005F936F937F938F939F93AF93BF93CF93FD
:1003B000DF93EF93FF93A0916307B09164070DB6AD
:1003C0000D920EB60D920E947006A0916307B09137
:1003D0006407CD91CDBFDD91DEBFFF91EF91DF913D
:1003E000CF91BF91AF919F918F917F916F915F91CD
:1003F0004F913F912F911F910F91FF90EF90DF90C0
:10040000CF90BF90AF909F908F907F906F905F90B4
:100410004F903F902F901F900F900FBE0F90089518
:100420000F920FB6F8940F921F9211242F923F92C1
:100430004F925F926F927F928F929F92AF92BF92F4
:10044000CF92DF92EF92FF920F931F932F933F93E0
:100450004F935F936F937F938F939F93AF93BF93CC
:10046000CF93DF93EF93FF93A0916307B09164075D
:100470000DB60D920EB60D920E94D40481110E9409
:100480007006A0916307B0916407CD91CDBFDD9157
:10049000DEBFFF91EF91DF91CF91BF91AF919F911F
:1004A0008F917F916F915F914F913F912F911F910C
:1004B0000F91FF90EF90DF90CF90BF90AF909F9003
:1004C0008F907F906F905F904F903F902F901F90F4
:1004D0000F900FBE0F9008950E94100218950F9371
:1004E0001F93CF93DF93EC010E94CE0480911E01F5
:1004F00081111DC0E3E2F1E088E291E09183808305
:1005000013821282EFE1F1E08BED95E09383828319
:1005100011821082A7E2B1E014969C938E931397F8
:100520001296FC93EE93119781E080931E01209721
:1005300009F45FC09E012C5F3F4F2396CA3DD54012
:1005400008F05AC0E0912301F0912401A3E2B1E048
:1005500002C0DF01FC01828193818217930720F49E
:10056000808191810097A9F7C1E0EF31FC0709F480
:1005700046C0CD91DC9111978E010C5F1F4F808199
:1005800091818D939C9382819381821B930B8930FF
:10059000910510F1BF01620F731FDB0113969C934D
:1005A0008E9312973383228312964D915C91139709
:1005B00083E291E001C0CD01EC01A881B9811296DE
:1005C0002D913C91139724173507A8F3EB01B983BC
:1005D000A883DC016D937C938091000190910101CF
:1005E00022813381821B930B909301018093000140
:1005F00008C000E010E005C000E010E002C000E02C
:1006000010E00E949105C801DF91CF911F910F91D9
:1006100008950F931F93CF93DF93009741F1EC015F
:100620008C01045011090E94CE04F80142815381CB
:10063000A3E2B1E001C0DF01ED91FC9111972281AD
:10064000338124173507B8F32497F983E8830D9392
:100650001C9320910001309101018A819B81820FBE
:10066000931F90930101809300010E949105DF91F7
:10067000CF911F910F910895E0912B07F0912C07D6
:100680008081811107C08FEF9FEF909303018093CA
:1006900002010895E0912B07F0912C070580F68167
:1006A000E02D0680F781E02D8281938190930301F4
:1006B000809302010895CF93DF93EC01E0916307EB
:1006C000F09164079383828380910A0790910B07CE
:1006D000C817D90768F46091630770916407809127
:1006E000290790912A076E5F7F4F0E94BA0017C0BA
:1006F000609163077091640780912B0790912C079C
:100700006E5F7F4F0E94BA008091020190910301B9
:10071000C817D90720F4D0930301C0930201DF91D9
:10072000CF9108954F925F926F927F928F929F9296
:10073000AF92BF92CF92DF92EF92FF920F931F93EF
:10074000CF93DF934C01EB015A012901C114D1046D
:1007500039F4CA010E946F026C01892B09F4E1C0CF
:1007600086E290E00E946F023C01009779F0FC0164
:10077000D08EC78AF1E0AF1AB108CA0CDB1C8881A1
:10078000F301818F8881811105C014C0C6010E94C8
:100790000903C7C0D3015A96FE0131969E01285F16
:1007A0003F4FEF0181918D938881882319F0E217E3
:1007B000F307B9F7F30110A2102F043008F013E08B
:1007C000F301168BE3012296CE010E949500C3012E
:1007D0000C960E949500F3017186608684E090E09B
:1007E000811B910995878487738A628A11A212A25C
:1007F00013A214A215A2A201B401C6010E94110104
:10080000F30191838083E114F10419F0F7017182FF
:1008100060820FB6F8940F9280910C078F5F8093DF
:100820000C078091630790916407892BD1F5709232
:1008300064076092630780910C07813009F040C023
:100840008FE397E00E94870088E497E00E9487008A
:1008500081E597E00E9487008AE597E00E94870083
:1008600086E397E00E9487008DE297E00E94870070
:1008700080E297E00E94870087E197E00E9487006E
:100880008DE097E00E94870086E397E090932C0725
:1008900080932B078DE297E090932A078093290796
:1008A0000FC08091080781110BC0E0916307F091A0
:1008B00064078689081720F07092640760926307C6
:1008C000809104078F5F80930407F30186899091DC
:1008D0000907981710F48093090790E09C01220FF4
:1008E000331F220F331F220F331F820F931FBE01AE
:1008F000815C984F0E9499000F900FBE809108076D
:10090000882359F0E0916307F09164078689801786
:1009100030F40E94B70181E005C081E003C081E0AE
:1009200001C08FEFDF91CF911F910F91FF90EF905A
:10093000DF90CF90BF90AF909F908F907F906F90FF
:100940005F904F900895AF92BF92CF92DF92EF9257
:10095000FF920F93A12CB12CC12CD12CE12CF12CA6
:1009600000E020E030E045E550E068E171E083E33D
:1009700096E00E949203813049F4F894809308072E
:1009800010920B0710920A070E947D010F91FF90B1
:10099000EF90DF90CF90BF90AF90089580910307C4
:1009A0008F5F809303070895CF92DF92EF92FF92BB
:1009B0000F931F93CF93DF938091030781119BC007
:1009C00080910A0790910B07019690930B078093F3
:1009D0000A07E0900A07F0900B07E114F104B9F45C
:1009E00080912B0790912C072091290730912A079D
:1009F00030932C0720932B0790932A078093290785
:100A0000809105078F5F809305070E943C038091CA
:100A1000020190910301E816F90610F4D12C53C09D
:100A2000D12CCC24C394E0912B07F0912C0780812A
:100A3000811107C08FEF9FEF909303018093020114
:100A400042C0E0912B07F0912C070580F681E02D44
:100A5000C681D7818A819B81E816F90628F4909394
:100A60000301809302012FC08E010E5F1F4FC8014A
:100A70000E94EB008C899D89892B21F0CE010C9678
:100A80000E94EB008E8990910907981710F48093CB
:100A9000090790E09C01220F331F220F331F220F02
:100AA000331F820F931FB801815C984F0E949900F9
:100AB000E0916307F09164079E898689981708F48E
:100AC000B2CFDC2CB0CFE0916307F0916407868948
:100AD00090E0FC01EE0FFF1FEE0FFF1FEE0FFF1F58
:100AE0008E0F9F1FFC01E15CF84F8081823048F03F
:100AF000DD24D39406C0809107078F5F809307079A
:100B0000D12C80910607882311F0DD24D3948D2DFC
:100B1000DF91CF911F910F91FF90EF90DF90CF90D9
:100B20000895DF92EF92FF920F931F93CF93DF937D
:100B30000FB6F8940F9280910307815080930307BA
:100B400080910307811162C080910C07811133C02D
:100B500060C0D7011596ED91FC911697C681D7819B
:100B6000CE010C960E94EB008E010E5F1F4FC80154
:100B70000E94EB008E8990910907981710F48093DA
:100B8000090790E09C01220F331F220F331F220F11
:100B9000331F820F931FB801815C984F0E94990008
:100BA000E0916307F09164079E898689981758F051
:100BB000D092060708C00F2EF0E2EF2EF7E0FF2ECE
:100BC000F02DDD24D394F70180818111C2CF809173
:100BD0000707882399F080910707882379F0C1E0FF
:100BE0000E94D4048111C0930607809107078150A9
:100BF00080930707809107078111F2CF8091060744
:100C0000813031F40E94B70181E003C080E001C06F
:100C100080E00F900FBEDF91CF911F910F91FF9059
:100C2000EF90DF900895CF93DF93EC01892BB1F023
:100C30000E94CE0480910A0790910B07C80FD91F1C
:100C4000809163079091640702960E94EB00CE01A9
:100C50000E945B030E949105811102C00E94B701AE
:100C6000DF91CF91089507E117E00F2EFFE3EF2EFC
:100C7000F7E0FF2EF02D29C00E94CE04D801CC91C0
:100C80000E949105CC2309F10FB6F8940F92D80178
:100C90001596ED91FC911697C681D781CE010296EB
:100CA0000E94EB0080910C07815080930C0780918B
:100CB00016078150809316070F900FBE8F89988D6D
:100CC0000E940903CE010E94090380911607811139
:100CD000D3CFF70180818230C0F30E94B701F5CFF6
:100CE00080910307882321F081E08093060708950F
:100CF000109206078091090790E0FC01EE0FFF1F9C
:100D0000EE0FFF1FEE0FFF1F8E0F9F1FFC01E15C18
:100D1000F84F8081811117C080910907815080931D
:100D200009078091090790E0FC01EE0FFF1FEE0F0D
:100D3000FF1FEE0FFF1F8E0F9F1FFC01E15CF84F9E
:100D40008081882349F38091090790E09C01220F5C
:100D5000331F220F331F220F331F280F391FD901D2
:100D6000A15CB84F1196ED91FC9112970280F3812E
:100D7000E02D1296FC93EE9311972E5B384FE217FD
:100D8000F30729F422813381FD0132832183FC01A1
:100D9000EE0FFF1FEE0FFF1FEE0FFF1F8E0F9F1FA7
:100DA000FC01E15CF84F0180F281E02D86819781A2
:0E0DB00090936407809363070895F894FFCF33
:100DBE00DB05FFFF4C69676874205461736B004656
:0E0DCE00616E205461736B0049444C45000077
:00000001FF
