S01A000041726475696E6F556E6F4672656572746F732E73726563BC
S11300000C9434000C9451000C9451000C94510045
S11300100C9451000C9451000C9451000C94510018
S11300200C9451000C9451000C9451000C94B002A7
S11300300C9451000C9451000C9451000C945100F8
S11300400C9451000C9451000C9451000C945100E8
S11300500C9451000C9451000C9451000C945100D8
S11300600C9451000C94510011241FBECFEFD8E022
S1130070DEBFCDBF11E0A0E0B1E0ECE8FEE002C0DD
S113008005900D92AA31B107D9F727E0AAE1B1E0B2
S113009001C01D92A835B207E1F70E9485000C94B7
S11300A044070C940000CF93DF9300D0CDB7DEB7A4
S11300B0249A0E941C059A8389832C9A64E670E032
S11300C0CE0101960E94A4062C9864E670E0CE014D
S11300D001960E94A406F1CFCF93DF9300D0CDB751
S11300E0DEB7259A0E941C059A8389832D9A64E6BB
S11300F070E0CE0101960E94A4062D9864E670E09B
S1130100CE0101960E94A406F1CFA12CB12CC12CE2
S1130110D12CE12CF12C03E020E030E040E051E070
S113012064E071E08CE690E00E94DB0320E030E0C4
S113013040E051E06DE071E083E590E00E94DB0374
S11301400E94EB04FFCFFC010396928381832FEF7F
S11301503FEF34832383968385839087878310823C
S11301600895FC01118610860895CF93DF939C01B6
S1130170FB01DC011196CD91DC911297D383C283EC
S11301808C819D81958384838C819D81DC01139670
S11301907C936E9312977D836C8331872087F9015A
S11301A080818F5F8083DF91CF910895CF93DF9318
S11301B0EB01488159814F3F2FEF520721F4FC0195
S11301C0A781B0850DC0DC01139601C0DF01129632
S11301D0ED91FC9113972081318142175307B0F7B9
S11301E01296ED91FC911397FB83EA83D583C48324
S11301F0BD83AC831396DC93CE931297998788873B
S1130200FC0120812F5F2083DF91CF910895CF934C
S1130210DF93FC01A085B185C281D381848195815E
S11302209D838C83C481D581828193819B838A83BE
S11302301196CD91DC911297CE17DF0731F48C81A2
S11302409D8112969C938E931197118610868C91A2
S113025081508C93DF91CF91089531E1FC0130837B
S1130260319722E22083FC013297A3E3A083FC01AF
S113027033976083FC0134977083FC0135971082B7
S1130280FC01369760E86083FC0137971082FC011B
S1130290389762E06083FC01399763E06083FC0176
S11302A03A9764E06083FC013B9765E06083FC015E
S11302B03C9766E06083FC013D9767E06083FC0146
S11302C03E9768E06083FC013F9769E06083FC012E
S11302D0709760E16083FC0171973083FC01729731
S11302E032E13083FC01739733E13083FC0174976E
S11302F034E13083FC01759735E13083FC01769756
S113030036E13083FC01779737E13083FC0178973D
S113031038E13083FC01799739E13083FC017A9725
S113032030E23083FC017B9731E23083FC017C971F
S11303302083FC017D9723E22083FC017E97408388
S1130340FC017F975083FC01B09726E22083FC01D7
S1130350B19727E22083FC01B29728E22083FC01B5
S1130360B39729E22083FC01B49720E32083FC01A6
S1130370B59721E320839C0126523109822F932FC4
S11303800895109289008CE7809388008BE0809315
S11303908100EFE6F0E0808182608083A0910D0708
S11303A0B0910E07CD91CDBFDD91DEBFFF91EF91EE
S11303B0DF91CF91BF91AF919F918F917F916F9179
S11303C05F914F913F912F911F910F91FF90EF906B
S11303D0DF90CF90BF90AF909F908F907F906F9061
S11303E05F904F903F902F901F900F900FBE0F90F3
S11303F0089581E008950F920FB6F8940F921F921A
S113040011242F923F924F925F926F927F928F921C
S11304109F92AF92BF92CF92DF92EF92FF920F938F
S11304201F932F933F934F935F936F937F938F9378
S11304309F93AF93BF93CF93DF93EF93FF93A091D9
S11304400D07B0910E070DB60D920EB60D920E94D7
S1130450E606A0910D07B0910E07CD91CDBFDD91B9
S1130460DEBFFF91EF91DF91CF91BF91AF919F914B
S11304708F917F916F915F914F913F912F911F9138
S11304800F91FF90EF90DF90CF90BF90AF909F902F
S11304908F907F906F905F904F903F902F901F9020
S11304A00F900FBE0F9008950F920FB6F8940F920D
S11304B01F9211242F923F924F925F926F927F92DC
S11304C08F929F92AF92BF92CF92DF92EF92FF9260
S11304D00F931F932F933F934F935F936F937F9348
S11304E08F939F93AF93BF93CF93DF93EF93FF9338
S11304F0A0910D07B0910E070DB60D920EB60D9298
S11305000E94280581110E94E606A0910D07B09172
S11305100E07CD91CDBFDD91DEBFFF91EF91DF914D
S1130520CF91BF91AF919F918F917F916F915F9187
S11305304F913F912F911F910F91FF90EF90DF907A
S1130540CF90BF90AF909F908F907F906F905F906F
S11305504F903F902F901F900F900FBE0F900895D3
S11305600E94540218950F931F93CF93DF93EC01CD
S11305700E94160580911A0181111EC0E4E2F1E087
S1130580F0931C01E0931B0110921E0110921D01B7
S11305908BED95E09093220180932101AFE1B1E0CE
S11305A011961C921E929093270180932601B18389
S11305B0A08381E080931A01209709F462C09E0110
S11305C02C5F3F4F2396CA3DD54008F05DC0E091B3
S11305D01B01F0911C01ABE1B1E003C0A52FB42FC6
S11305E0FC01828193818217930730F48081918189
S11305F05E2F4F2F009791F7C1E0EF31FC0709F40C
S113060046C0CD91DC9111978E010C5F1F4F808104
S113061091818D939C9382819381821B930B89306A
S1130620910510F1BF01620F731FDB0113969C93B8
S11306308E9312973383228312964D915C91139774
S11306408BE191E001C0CD01EC01A881B981129642
S11306502D913C91139724173507A8F3EB01B98327
S1130660A883DC016D937C9380910001909101013A
S113067022813381821B930B9093010180930001AB
S113068008C000E010E005C000E010E002C000E097
S113069010E00E94E705802F912FDF91CF911F91E9
S11306A00F9108950F931F93CF93DF93EC0100975D
S11306B039F18C01045011090E941605F801428198
S11306C05381ABE1B1E001C0DF01ED91FC911197E1
S11306D02281338124173507B8F32497F983E883FB
S11306E00D931C9320910001309101018A819B811B
S11306F0820F931F90930101809300010E94E705EC
S1130700DF91CF911F910F910895E0910B07F09124
S11307100C078081811107C08FEF9FEF9093030135
S1130720809302010895E0910B07F0910C07058076
S1130730F681E02D0680F781E02D828193819093EC
S11307400301809302010895CF93DF93EC01E091BC
S11307500D07F0910E079383828380910507909192
S11307600607C817D90768F460910D0770910E0742
S11307708091090790910A076E5F7F4F0E94D6000F
S113078017C060910D0770910E0780910B0790912F
S11307900C076E5F7F4F0E94D600809102019091FA
S11307A00301C817D90720F4D0930301C0930201B1
S11307B0DF91CF9108954F925F926F927F928F92C3
S11307C09F92AF92BF92CF92DF92EF92FF920F93DC
S11307D01F93CF93DF934C015B012A013901C114AC
S11307E0D10439F4CA010E94B3026C01009709F4E0
S11307F0E0C086E290E00E94B302EC01009771F041
S1130800D88ECF8A81E0481A5108C40CD51CD50172
S11308108C91898F8C91811105C015C0C6010E94ED
S11308205203C7C0AE01465E5F4FF501319627E023
S1130830CF013191DA013D93AD01DC018C91882324
S113084011F02150A9F718A2102F043008F013E07A
S11308501E8B5E01B2E0AB0EB11CC5010E94B1005B
S1130860CE010C960E94B100D987C88784E090E03D
S1130870811B91099D878C87DB8BCA8B19A21AA2D5
S11308801BA21CA21DA2A301B401C6010E942D013A
S113089099838883E114F10419F0F701D183C083AB
S11308A00FB6F8940F92809107078F5F8093070724
S11308B080910D0790910E07892BE1F5D0930E07D7
S11308C0C0930D0780910707813009F042C0E12CE5
S11308D0F12CC701880F991F880F991F880F991F42
S11308E08E0D9F1D805F984F0E94A300FFEFEF1AAB
S11308F0FF0A84E0E816F10461F784E397E00E94BC
S1130900A3008DE397E00E94A30086E497E00E9491
S1130910A3008FE497E00E94A30084E397E0909300
S11309200C0780930B078DE397E090930A0780935D
S113093009070FC08091030781110BC0E0910D07D7
S1130940F0910E078689081720F0D0930E07C09304
S11309500D0780910F078F5F80930F078E89909109
S11309600407981710F48093040790E09C01220F69
S1130970331F220F331F220F331F820F931FB50122
S1130980805F984F0E94B5000F900FBE80910307BF
S1130990882359F0E0910D07F0910E07868980179E
S11309A030F40E94FB0181E005C081E003C081E0D6
S11309B001C08FEFDF91CF911F910F91FF90EF90C6
S11309C0DF90CF90BF90AF909F908F907F906F906B
S11309D05F904F900895AF92BF92CF92DF92EF92C3
S11309E0FF920F93A12CB12CC12CD12CE12CF12C12
S11309F000E020E030E045E550E065E171E088E6A4
S1130A0096E00E94DB03813049F4F8948093030755
S1130A1010920607109205070E94C1010F91FF90E2
S1130A20EF90DF90CF90BF90AF9008958091FF0634
S1130A308F5F8093FF0608950FB6F8940F9220916C
S1130A400507309106070F900FBE822F932F08954C
S1130A50CF92DF92EF92FF920F931F93CF93DF9386
S1130A608091FF0681119AC0809105079091060735
S1130A7001969093060780930507E0900507F09090
S1130A800607E114F104B9F480910B0790910C0767
S1130A902091090730910A0730930C0720930B0724
S1130AA090930A0780930907809100078F5F8093D2
S1130AB000070E9485038091020190910301E816CA
S1130AC0F90620F4D12C54C0DC2C03C0D12CCC2446
S1130AD0C394E0910B07F0910C078081811107C04A
S1130AE08FEF9FEF909303018093020141C0E09147
S1130AF00B07F0910C070580F681E02DC681D781A4
S1130B002A813B81E216F30628F4309303012093F3
S1130B1002012EC08E010E5F1F4FC8010E94070103
S1130B208C899D89892B21F0CE010C960E940701A6
S1130B302E8980910407821710F42093040730E073
S1130B40C901880F991F880F991F880F991F820F59
S1130B50931FB801805F984F0E94B500E0910D0784
S1130B60F0910E079E898689981708F0ADCFB1CF12
S1130B70E0910D07F0910E07868990E0FC01EE0FDD
S1130B80FF1FEE0FFF1FEE0FFF1F8E0F9F1FFC01B5
S1130B90E05FF84F8081823040F409C08091020701
S1130BA08F5F80930207D12C02C0DD24D3948091FF
S1130BB00107882311F0DD24D3948D2DDF91CF918B
S1130BC01F910F91FF90EF90DF90CF900895DF92E7
S1130BD0EF92FF920F931F93CF93DF930FB6F89486
S1130BE00F928091FF0681508093FF068091FF064B
S1130BF0811161C080910707811132C05FC0E0910B
S1130C004B07F0914C07C681D781CE010C960E9408
S1130C1007018E010E5F1F4FC8010E9407018E89D4
S1130C2090910407981710F48093040790E09C01B6
S1130C30220F331F220F331F220F331F820F931FE4
S1130C40B801805F984F0E94B500E0910D07F091C4
S1130C500E079E898689981758F0D092010708C01C
S1130C600F2EF6E4EF2EF7E0FF2EF02DDD24D394C3
S1130C70F70180818111C3CF80910207882399F005
S1130C8080910207882379F0C1E00E942805811130
S1130C90C0930107809102078150809302078091DD
S1130CA002078111F2CF80910107813031F40E9453
S1130CB0FB0181E003C080E001C080E00F900FBE23
S1130CC0DF91CF911F910F91FF90EF90DF900895E6
S1130CD0CFE4D7E00F2EF0E1EF2EF7E0FF2EF02D5A
S1130CE028C00E94160518810E94E705112309F106
S1130CF00FB6F8940F92E0915407F09155070681CE
S1130D001781C80102960E9407018091070781504C
S1130D1080930707809108078150809308070F90FC
S1130D200FBEF8018789908D0E945203C8010E946A
S1130D305203809108078111D4CFF701808182305A
S1130D40C0F30E94FB01F5CF0F931F93CF93DF9362
S1130D508C01EB010E94160580910507909106070E
S1130D60F80120813181C20FD31F8217930748F401
S1130D70C217D30710F5D183C0838C179D0790F455
S1130D8007C0C217D307A8F08C179D0790F015C0B1
S1130D9080910D0790910E0702960E940701CE01E3
S1130DA00E94A4030E94E70581110BC00E94FB016D
S1130DB008C0F801D183C083EBCFF801D183C0838D
S1130DC0F1CFDF91CF911F910F9108958091FF068C
S1130DD0882321F081E08093010708951092010790
S1130DE08091040790E0FC01EE0FFF1FEE0FFF1F40
S1130DF0EE0FFF1F8E0F9F1FFC01E05FF84F8081F5
S1130E00811117C080910407815080930407809159
S1130E10040790E0FC01EE0FFF1FEE0FFF1FEE0F23
S1130E20FF1F8E0F9F1FFC01E05FF84F8081882316
S1130E3049F3E0910407F0E0CF01880F991F880F70
S1130E40991F880F991FE80FF91FE05FF84FA181E0
S1130E50B28112960D90BC91A02DB283A183CF01D3
S1130E600396A817B90731F412968D919C911397A4
S1130E70928381830180F281E02D86819781909312
S10F0E800E0780930D070895F894FFCF2F
S1130E8CDB05FFFF477265656E4C454400426C758B
S10D0E9C654C45440049444C4500F0
S9030000FC
