:100000000C9434000C9451000C9451000C94510049
:100010000C9451000C9451000C9451000C9451001C
:100020000C9451000C9451000C9451000C940F034B
:100030000C9451000C9451000C9451000C945100FC
:100040000C9451000C9451000C9451000C945100EC
:100050000C9451000C9451000C9451000C945100DC
:100060000C9451000C94510011241FBECFEFD8E026
:10007000DEBFCDBF11E0A0E0B1E0E8E9FEE102C0E3
:1000800005900D92AA38B107D9F727E0AAE8B1E0A8
:1000900001C01D92A53FB207E1F70E94EB000C944E
:1000A0004A0F0C9400000F2EF4E6EF2EF12CF02DE9
:1000B00008E011E00E94030CEC0120E04FEF5FEF3D
:1000C00060E070E08091D5079091D6070E94B1055D
:1000D000813081F7CE01B7010E948F0BD82FC92F35
:1000E00020918A0130918B012A3031056CF4F9019D
:1000F000EE0FFF1FE752F84F808391832F5F3F4F32
:1001000030938B0120938A01CF93DF931F930F933A
:100110000E941C0C8D2F9C2F0E94800B20E040E041
:1001200050E060E070E08091D5079091D6070E9482
:1001300010050F900F900F900F90813009F4BACFF7
:1001400086E191E00E94800BB5CFCF93DF9320E052
:100150004FEF5FEF60E070E08091D5079091D60798
:100160000E94B105813091F520918A0130918B0177
:1001700021503109F901EE0FFF1FE752F84FD081EE
:10018000C18130938B0120938A01CF93DF9388E064
:1001900091E09F938F930E941C0C8D2F9C2F0E94A7
:1001A000800B20E040E050E060E070E08091D507F7
:1001B0009091D6070E9410050F900F900F900F900E
:1001C000813021F086E191E00E94800B80E090E098
:1001D000DF91CF910895F8940E946C0B43E060E0AA
:1001E00081E00E94E4049093D6078093D507892B81
:1001F00061F18FEF8AB9A12CB12CC12CD12C0F2E1B
:10020000FDEEEF2EF7E0FF2EF02D01E020E030E0D4
:1002100040E051E064E471E083E590E00E94CA06AA
:100220000F2EF7EDEF2EF7E0FF2EF02D03E020E08C
:1002300030E040E051E06DE471E085EA90E00E943A
:10024000CA0678940E94DD0704C086E591E00E940A
:10025000800BFFCFFC010396928381832FEF3FEF4A
:1002600034832383968385839087878310820895C0
:10027000FC01118610860895CF93DF939C01FB014A
:10028000DC011196CD91DC911297D383C2838C81CE
:100290009D81958384838C819D81DC0113967C9361
:1002A0006E9312977D836C8331872087F90180815B
:1002B0008F5F8083DF91CF910895CF93DF93EB0120
:1002C000488159814F3F2FEF520721F4FC01A7814C
:1002D000B0850DC0DC01139601C0DF011296ED91CF
:1002E000FC9113972081318142175307B0F7129682
:1002F000ED91FC911397FB83EA83D583C483BD837F
:10030000AC831396DC93CE93129799878887FC0170
:1003100020812F5F2083DF91CF910895CF93DF93CA
:10032000FC01A085B185C281D381848195819D83A3
:100330008C83C481D581828193819B838A8311962A
:10034000CD91DC911297CE17DF0731F48C819D811E
:1003500012969C938E931197118610868C918150E2
:100360008C93DF91CF91089531E1FC013083319777
:1003700022E220833197A3E3A083319760833197F2
:10038000708331971082319760E8608331971082D3
:10039000319762E06083319763E06083319764E076
:1003A0006083319765E06083319766E060833197C1
:1003B00067E06083319768E06083319769E060832C
:1003C000319760E1608331973083319732E1308338
:1003D000319733E13083319734E13083319735E120
:1003E0003083319736E13083319737E1308331976D
:1003F00038E13083319739E13083319730E230830F
:10040000319731E2308331972083319723E2208383
:100410003197408331975083319726E2208331977B
:1004200027E22083319728E22083319729E2208335
:10043000319720E32083319721E320838697089525
:10044000109289008CE7809388008BE08093810074
:10045000EFE6F0E0808182608083A091D307B091C5
:10046000D407CD91CDBFDD91DEBFFF91EF91DF913C
:10047000CF91BF91AF919F918F917F916F915F913C
:100480004F913F912F911F910F91FF90EF90DF902F
:10049000CF90BF90AF909F908F907F906F905F9024
:1004A0004F903F902F901F900F900FBE0F90089588
:1004B00081E008950F920FB6F8940F921F921124C5
:1004C0002F923F924F925F926F927F928F929F9264
:1004D000AF92BF92CF92DF92EF92FF920F931F9352
:1004E0002F933F934F935F936F937F938F939F933C
:1004F000AF93BF93CF93DF93EF93FF93A091D30775
:10050000B091D4070DB60D920EB60D920E948E09D1
:10051000A091D307B091D407CD91CDBFDD91DEBFBF
:10052000FF91EF91DF91CF91BF91AF919F918F910B
:100530007F916F915F914F913F912F911F910F91FB
:10054000FF90EF90DF90CF90BF90AF909F908F90F3
:100550007F906F905F904F903F902F901F900F90E3
:100560000FBE0F9008950F920FB6F8940F921F923E
:1005700011242F923F924F925F926F927F928F92AF
:100580009F92AF92BF92CF92DF92EF92FF920F9322
:100590001F932F933F934F935F936F937F938F930B
:1005A0009F93AF93BF93CF93DF93EF93FF93A0916C
:1005B000D307B091D4070DB60D920EB60D920E94DE
:1005C000120881110E948E09A091D307B091D4071F
:1005D000CD91CDBFDD91DEBFFF91EF91DF91CF9146
:1005E000BF91AF919F918F917F916F915F914F914B
:1005F0003F912F911F910F91FF90EF90DF90CF903F
:10060000BF90AF909F908F907F906F905F904F9032
:100610003F902F901F900F900FBE0F9008950E9453
:10062000B30218950F931F93CF93DF93EC010E94B1
:100630000C0880918C0181111DC0E1E9F1E086E98F
:1006400091E09183808313821282EDE8F1E08BEDDB
:1006500095E09383828311821082A5E9B1E014961C
:100660009C938E9313971296FC93EE93119781E0CF
:1006700080938C01209709F45FC09E012C5F3F4F4F
:100680002396CA3DD54008F05AC0E0919101F091FF
:100690009201A1E9B1E002C0DF01FC0182819381F6
:1006A0008217930720F4808191810097A9F7C1E018
:1006B000ED38FC0709F446C0CD91DC9111978E010D
:1006C0000C5F1F4F808191818D939C9382819381D8
:1006D000821B930B8930910510F1BF01620F731FCC
:1006E000DB0113969C938E93129733832283129689
:1006F0004D915C91139781E991E001C0CD01EC012E
:10070000A881B98112962D913C9113972417350732
:10071000A8F3EB01B983A883DC016D937C938091EE
:1007200004019091050122813381821B930B9093E8
:1007300005018093040108C000E010E005C000E05E
:1007400010E002C000E010E00E94CF08C801DF9175
:10075000CF911F910F9108950F931F93CF93DF9324
:10076000009741F1EC018C01045011090E940C0822
:10077000F80142815381A1E9B1E001C0DF01ED91AF
:10078000FC9111972281338124173507B8F3249700
:10079000F983E8830D931C932091040130910501A6
:1007A0008A819B81820F931F90930501809304019E
:1007B0000E94CF08DF91CF911F910F9108951F9351
:1007C000CF93DF93EC01142F8C8D81110CC08881A5
:1007D0009981892B09F047C08A819B810E941A0B5D
:1007E0001B821A8247C0411118C0482F50E08C81EB
:1007F0009D810E94130C2C8D8C819D81820F911DF7
:100800009D838C832A813B818217930770F18881B5
:1008100099819D838C8380E02DC0482F50E08E818C
:100820009F810E94130C8C8D90E091958195910988
:100830002E813F81280F391F3F832E8348815981A4
:100840002417350730F42A813B81820F931F9F8341
:100850008E83123061F48A8D882359F08A8D8150FD
:100860008A8F80E007C080E005C080E003C080E0A0
:1008700001C080E09A8D9F5F9A8FDF91CF911F9189
:100880000895FC01448D4423A9F050E0268137816E
:10089000240F351F378326838281938128173907D8
:1008A00020F08081918197838683CB016681778157
:1008B0000E94130C08950F931F93CF93DF93EC01C5
:1008C0000FB6F8940F928E8D1816BCF48989811199
:1008D00005C013C09989911104C00FC08E010F5E2D
:1008E0001F4FC8010E94280A81110E94B40A9E8DE0
:1008F00091509E8F9E8D19166CF38FEF8E8F0F90F7
:100900000FBE0FB6F8940F928D8D1816BCF4888523
:10091000811105C013C09885911104C00FC08E01CC
:10092000085F1F4FC8010E94280A81110E94B40A63
:100930009D8D91509D8F9D8D19166CF38FEF8D8F2E
:100940000F900FBEDF91CF911F910F910895CF931C
:10095000DF93EC010FB6F8940F92488159812C8DEA
:1009600030E07B8D729FC001739F900D1124FA01BE
:10097000E80FF91FFB83EA831A8E5D834C83821B89
:10098000930B840F951F9F838E838FEF8D8F8E8F98
:1009900061110CC08885882389F0CE0108960E94D9
:1009A000280A813059F40E945A0208C0CE010896E4
:1009B0000E942A01CE0141960E942A010F900FBE8B
:1009C00081E0DF91CF9108950F931F93CF93DF9331
:1009D000082F162F6623B9F0869FC0011124809638
:1009E0000E941203EC01009721F414C0D983C8833C
:1009F00003C04F96998388830B8F1C8F61E0CE01D3
:100A00000E94A70407C08FE190E00E941203EC014E
:100A1000892B61F7CE01DF91CF911F910F9108953E
:100A20009F92AF92BF92CF92DF92EF92FF920F937D
:100A30001F93CF93DF9300D000D01F92CDB7DEB7C6
:100A40008C016B015D834C83A22EB12C992493946D
:100A50007C0188E0E80EF11C0FB6F8940F92F801C3
:100A6000328D938D391718F0F2E0AF1219C04A2D6C
:100A7000B601C8010E94DF03F8019189992349F06A
:100A8000C80141960E94280A813031F40E945A021E
:100A900003C081110E945A020F900FBE81E050C026
:100AA000EC81FD81EF2B21F40F900FBE80E048C058
:100AB000B11005C0CE0101960E94700AB92C0F90AA
:100AC0000FBE0E940C080FB6F8940F92F801858DA6
:100AD0008F3F09F4158EF801868D8F3F09F4168E2D
:100AE0000F900FBEBE016C5F7F4FCE0101960E943A
:100AF0007B0A81111FC00FB6F8940F92F801928DF6
:100B00000F900FBE838D98130FC06C817D81C7013C
:100B10000E94FB09C8010E945B040E94CF0881115A
:100B20009BCF0E945A0298CFC8010E945B040E948A
:100B3000CF0892CFC8010E945B040E94CF0880E0DA
:100B40000F900F900F900F900F90DF91CF911F910A
:100B50000F91FF90EF90DF90CF90BF90AF909F905C
:100B600008959F92AF92BF92CF92DF92EF92FF9241
:100B70000F931F93CF93DF9300D000D01F92CDB778
:100B8000DEB78C016B015D834C83922EB12CAA24BD
:100B9000A3947C0181E1E80EF11C0FB6F8940F924A
:100BA000F801928D992399F1E680F780B601C8018A
:100BB0000E94410491101AC0F801828D8150828FE9
:100BC00080819181892B29F40E945A0BF80193832B
:100BD0008283F80180858823B1F0C80108960E94BD
:100BE000280A813081F40E945A020DC0F801F78270
:100BF000E6828189882339F0C80141960E94280A3B
:100C000081110E945A020F900FBE81E05CC04C819E
:100C10005D81452B21F40F900FBE80E054C0B110D0
:100C200005C0CE0101960E94700ABA2C0F900FBE2B
:100C30000E940C080FB6F8940F92F801858D8F3F33
:100C400009F4158EF801968D9F3F09F4168E0F90CA
:100C50000FBEBE016C5F7F4FCE0101960E947B0AE2
:100C600081112BC00FB6F8940F92F801828D0F906E
:100C70000FBE81111CC080819181892B49F40FB670
:100C8000F8940F92828193810E94B80A0F900FBE50
:100C90006C817D81C7010E94FB09C8010E945B0431
:100CA0000E94CF08811179CF0E945A0276CFC801E5
:100CB0000E945B040E94CF0870CFC8010E945B04B1
:100CC0000E94CF0880E00F900F900F900F900F9030
:100CD000DF91CF911F910F91FF90EF90DF90CF9018
:100CE000BF90AF909F900895E0919B07F0919C0773
:100CF0008081811107C08FEF9FEF90930701809350
:100D000006010895E0919B07F0919C070580F6810C
:100D1000E02D0680F781E02D828193819093070179
:100D2000809306010895CF93DF93EC01E091D30700
:100D3000F091D4079383828380917807909179070B
:100D4000C817D90768F46091D3077091D4078091D0
:100D5000990790919A076E5F7F4F0E945D0117C0BF
:100D60006091D3077091D40780919B0790919C0765
:100D70006E5F7F4F0E945D01809106019091070197
:100D8000C817D90720F4D0930701C0930601DF915B
:100D9000CF9108954F925F926F927F928F929F9220
:100DA000AF92BF92CF92DF92EF92FF920F931F9379
:100DB000CF93DF934C01EB015A012901C114D104F7
:100DC00039F4CA010E9412036C01892B09F4E3C0B3
:100DD00088E290E00E9412033C01009779F0FC0148
:100DE000D08EC78AF1E0AF1AB108CA0CDB1C88812B
:100DF000F301818F8881811105C014C0C6010E9452
:100E0000AC03C9C0D3015A96FE0131969E01285FFA
:100E10003F4FEF0181918D938881882319F0E2176C
:100E2000F307B9F7F30110A2102F043008F013E014
:100E3000F301168B11A312A2E3012296CE010E94A8
:100E40003801C3010C960E943801F3017186608657
:100E500084E090E0811B910995878487738A628A78
:100E600013A214A215A216A217A2A201B401C601D0
:100E70000E94B401F30191838083E114F10419F01D
:100E8000F701718260820FB6F8940F9280917A0711
:100E90008F5F80937A078091D3079091D407892B35
:100EA000D1F57092D4076092D30780917A07813090
:100EB00009F040C08FEA97E00E942A0188EB97E092
:100EC0000E942A0181EC97E00E942A018AEC97E0B7
:100ED0000E942A0186EA97E00E942A018DE997E0A4
:100EE0000E942A0180E997E00E942A0187E897E0A2
:100EF0000E942A018DE797E00E942A0186EA97E086
:100F000090939C0780939B078DE997E090939A07B5
:100F1000809399070FC08091760781110BC0E091F3
:100F2000D307F091D4078689081720F07092D40770
:100F30006092D307809172078F5F80937207F301ED
:100F4000868990917707981710F48093770790E03F
:100F50009C01220F331F220F331F220F331F820FDA
:100F6000931FBE018155984F0E943C010F900FBE08
:100F700080917607882359F0E091D307F091D40748
:100F80008689801730F40E945A0281E005C081E012
:100F900003C081E001C08FEFDF91CF911F910F91CE
:100FA000FF90EF90DF90CF90BF90AF909F908F9089
:100FB0007F906F905F904F900895AF92BF92CF92C5
:100FC000DF92EF92FF920F93A12CB12CC12CD12C68
:100FD0000F2EFBE7EF2EF7E0FF2EF02D00E020E0D4
:100FE00030E045E550E064E871E081E599E00E9479
:100FF000CA06813049F4F8948093760710927907F5
:10100000109278070E9420020F91FF90EF90DF90DE
:10101000CF90BF90AF900895809171078F5F8093BC
:1010200071070895CF92DF92EF92FF920F931F9373
:10103000CF93DF938091710781119BC080917807D6
:101040009091790701969093790780937807E090C3
:101050007807F0907907E114F104B9F480919B07C7
:1010600090919C072091990730919A0730939C07A3
:1010700020939B0790939A07809399078091730719
:101080008F5F809373070E94740680910601909190
:101090000701E816F90610F4D12C53C0D12CCC244A
:1010A000C394E0919B07F0919C079081911107C038
:1010B0008FEF9FEF909307018093060142C0E0916C
:1010C0009B07F0919C070580F681E02DC681D781B2
:1010D0002A813B81E216F30628F43093070120931E
:1010E00006012FC08E010E5F1F4FC8010E948E01A6
:1010F0008C899D89892B21F0CE010C960E948E014E
:101100002E8980917707821710F42093770730E0BB
:10111000C901880F991F880F991F880F991F820F87
:10112000931FB8018155984F0E943C01E091D3076D
:10113000F091D4079E898689981708F4B2CFDC2CE9
:10114000B0CFE091D307F091D407868990E0FC01FD
:10115000EE0FFF1FEE0FFF1FEE0FFF1F8E0F9F1FE3
:10116000FC01E155F84F8081823048F0DD24D394B2
:1011700006C0809175078F5F80937507D12C809191
:101180007407882311F0DD24D3948D2DDF91CF9146
:101190001F910F91FF90EF90DF90CF900895DF9215
:1011A000EF92FF920F931F93CF93DF930FB6F894B4
:1011B0000F92809171078150809371078091710720
:1011C000811162C080917A07811133C060C0D7015C
:1011D0001596ED91FC911697C681D781CE010C969C
:1011E0000E948E018E010E5F1F4FC8010E948E016A
:1011F0002E8980917707821710F42093770730E0CB
:10120000C901880F991F880F991F880F991F820F96
:10121000931FB8018155984F0E943C01E091D3077C
:10122000F091D4079E898689981758F0D092740758
:1012300008C00F2EF0E9EF2EF7E0FF2EF02DDD2491
:10124000D394F70180818111C2CF809175078823E3
:1012500099F080917507882379F0C1E00E94120807
:101260008111C09374078091750781508093750731
:10127000809175078111F2CF80917407813031F42C
:101280000E945A0281E003C080E001C080E00F901C
:101290000FBEDF91CF911F910F91FF90EF90DF90E4
:1012A000089507E817E00F2EFFEAEF2EF7E0FF2E74
:1012B000F02D29C00E940C08D801CC910E94CF08C3
:1012C000CC2309F10FB6F8940F92D8011596ED9141
:1012D000FC911697C681D781CE0102960E948E019D
:1012E00080917A07815080937A0780918607815098
:1012F000809386070F900FBE8F89988D0E94AC0354
:10130000CE010E94AC03809186078111D3CFF701F3
:1013100080818230C0F30E945A02F5CF809171071C
:10132000882321F081E08093740708951092740758
:101330008091770790E0FC01EE0FFF1FEE0FFF1F7B
:10134000EE0FFF1F8E0F9F1FFC01E155F84F8081AC
:10135000811117C080917707815080937707809122
:10136000770790E0FC01EE0FFF1FEE0FFF1FEE0F5F
:10137000FF1F8E0F9F1FFC01E155F84F80818823CE
:1013800049F38091770790E09C01220F331F220FD1
:10139000331F220F331F280F391FD901A155B84F12
:1013A0001196ED91FC9112970280F381E02D129637
:1013B000FC93EE9311972E54384FE217F30729F45C
:1013C00022813381FD0132832183FC01EE0FFF1F57
:1013D000EE0FFF1FEE0FFF1F8E0F9F1FFC01E15549
:1013E000F84F0180F281E02D868197819093D40798
:1013F0008093D3070895CF93DF93EB012091D30718
:101400003091D407B901645F7F4F0E945D018091E4
:10141000D3079091D40702960E948E01CF3F8FEFA1
:10142000D80759F46091D3077091D4076E5F7F4F4E
:101430008DE797E00E943C0108C080917807909169
:1014400079078C0F9D1F0E949306DF91CF9108951D
:101450000F931F93CF93DF93DC011596ED91FC91D1
:101460001697C681D7818E01045F1F4FC8010E9465
:101470008E018091710781111CC00A501109C801A9
:101480000E948E012E8980917707821710F4209395
:10149000770730E0C901880F991F880F991F880FBF
:1014A000991F820F931FB8018155984F0E943C01EC
:1014B00005C0B80180E997E00E943C01E091D307A4
:1014C000F091D4079E898689891720F481E0809362
:1014D000740701C080E0DF91CF911F910F910895B3
:1014E00020917307FC0120832091780730917907C0
:1014F0003283218308950FB6F8940F9240917807B4
:1015000050917907DB012D913C912F3FBFEF3B07B5
:1015100019F1E0917307DC01FC91FE1739F0119687
:10152000ED91FC9112974E175F07C0F4DC01119604
:10153000ED91FC911297DA01AE1BBF0BA217B30716
:1015400078F4DB01E41BF50B2E0F3F1F2D933C932A
:101550000E94700A80E005C080E003C081E001C005
:1015600081E00F900FBE089581E080937407089585
:101570000F931F93CF93DF93FC01892B09F455C080
:101580002689A091D307B091D40756968C9128173D
:1015900008F04BC084859585992364F0A091D3070A
:1015A000B091D40756963C9184E090E0831B91095A
:1015B0009587848730E0C901880F991F880F991F8C
:1015C000880F991F280F391F2155384F8285938521
:1015D0008217930719F58F01EF012296CE010E9421
:1015E0008E01E091D307F091D4072689F801268B6C
:1015F00080917707821710F42093770730E0C901B4
:10160000880F991F880F991F880F991F820F931FAA
:10161000BE018155984F0E943C0107C0A091D3079D
:10162000B091D40756968C91868BDF91CF911F9104
:101630000F9108950F931F93CF93DF93FC01892B94
:1016400079F182A1815082A3268991A1291751F1B4
:1016500081112AC0EF018F010E5F1F4FC8010E9448
:101660008E0129A12E8B44E050E0421B51095D8779
:101670004C8780917707821710F42093770730E02A
:10168000C901880F991F880F991F880F991F820F12
:10169000931FB8018155984F0E943C0181E005C01D
:1016A00080E003C080E001C080E0DF91CF911F9116
:1016B0000F9108958091D3079091D407892B39F029
:1016C000E091D307F091D40782A18F5F82A380912C
:1016D000D3079091D40708951092C50087E68093B0
:1016E000C4008CE18093C10086E08093C20008951D
:1016F000E0ECF0E0908195FFFDCF8093C600089567
:10170000CF93DF93EC018881882331F021960E94EA
:10171000780B89918111FBCFDF91CF91089597FBD1
:10172000072E16F4009407D077FD09D00E94A30B72
:1017300007FC05D03EF4909581959F4F08957095D4
:1017400061957F4F0895AA1BBB1B51E107C0AA1FDB
:10175000BB1FA617B70710F0A61BB70B881F991F52
:101760005A95A9F780959095BC01CD0108958F9267
:101770009F92AF92BF92CF92DF92EF92FF92CF9360
:10178000DF93EC01688179818A819B816115710504
:101790008105910521F464E279ED8BE597E02DE177
:1017A00033EF41E050E00E94B00E49015A019B0125
:1017B000AC01A7EAB1E40E94CF0E6B017C01ACEE54
:1017C000B4EFA50194010E94DD0EDC01CB018C0D6C
:1017D0009D1DAE1DBF1DB7FF03C00197A109B048F5
:1017E00088839983AA83BB839F77DF91CF91FF90F2
:1017F000EF90DF90CF90BF90AF909F908F90089523
:101800000E94B70B089580E091E00E94B70B089505
:10181000A0E0B0E08093000190930101A093020149
:10182000B09303010895FB01DC0102C001900D9209
:1018300041505040D8F70895A0E0B0E0E2E2FCE06B
:101840000C94F20EAE014B5F5F4FFA016191719102
:10185000AF018091F1079091F2070E94320CE2E013
:101860000C940E0FACE0B0E0E8E3FCE00C94E20E68
:101870007C016B018A01FC0117821682838181FF42
:10188000BDC1CE0101964C01F7019381F60193FD94
:10189000859193FF81916F01882309F4ABC1853253
:1018A00039F493FD859193FF81916F01853229F47D
:1018B000B70190E00E941A0EE7CF512C312C20E0A6
:1018C0002032A0F48B3269F030F4803259F0833248
:1018D00069F420612CC08D3239F0803339F42160F5
:1018E00026C02260246023C0286021C027FD27C0B5
:1018F00030ED380F3A3078F426FF06C0FAE05F9EEC
:10190000300D1124532E13C08AE0389E300D11245F
:10191000332E20620CC08E3221F426FD6BC1206470
:1019200006C08C3611F4206802C0883641F4F601F6
:1019300093FD859193FF81916F018111C1CF982F04
:101940009F7D9554933028F40C5F1F4FFFE3F9837C
:101950000DC0833631F0833771F0833509F05BC0F9
:1019600022C0F801808189830E5F1F4F4424439475
:10197000512C540115C03801F2E06F0E711CF801B2
:10198000A080B18026FF03C0652D70E002C06FEF1C
:101990007FEFC5012C870E940F0E2C0183012C853F
:1019A0002F77222E17C03801F2E06F0E711CF8015C
:1019B000A080B18026FF03C0652D70E002C06FEFEC
:1019C0007FEFC5012C870E94040E2C012C85206816
:1019D000222E830123FC1BC0832D90E0481659065C
:1019E000B0F4B70180E290E00E941A0E3A94F4CF6E
:1019F000F50127FC859127FE81915F01B70190E0F9
:101A00000E941A0E31103A94F1E04F1A5108411415
:101A1000510471F7E5C0843611F0893639F5F801C3
:101A200027FF07C060817181828193810C5F1F4F06
:101A300008C060817181072E000C880B990B0E5F26
:101A40001F4F2F76722E97FF09C090958095709545
:101A500061957F4F8F4F9F4F2068722E2AE030E0B4
:101A6000A4010E94520EA82EA81844C0853729F45C
:101A70002F7EB22E2AE030E025C0F22FF97FBF2E54
:101A80008F36C1F018F4883579F0B4C0803719F07A
:101A9000883721F0AFC02F2F2061B22EB4FE0DC0C9
:101AA0008B2D8460B82E09C024FF0AC09F2F96603A
:101AB000B92E06C028E030E005C020E130E002C0C9
:101AC00020E132E0F801B7FE07C0608171818281B8
:101AD00093810C5F1F4F06C06081718180E090E0B0
:101AE0000E5F1F4FA4010E94520EA82EA818FB2DB6
:101AF000FF777F2E76FE0BC0372D3E7FA51450F466
:101B000074FE0AC072FC08C0372D3E7E05C0BA2C98
:101B1000372D03C0BA2C01C0B52C34FF0DC0FE0117
:101B2000EA0DF11D8081803311F4397E09C032FF46
:101B300006C0B394B39404C0832F867809F0B3949D
:101B400033FD13C030FF06C05A2CB31418F4530CE5
:101B50005B18B32CB31468F4B70180E290E03C87C3
:101B60000E941A0EB3943C85F5CFB31410F43B18C1
:101B700001C0312C34FF12C0B70180E390E03C87F4
:101B80000E941A0E3C8532FF17C031FD03C088E762
:101B900090E002C088E590E0B7010CC0832F867802
:101BA00059F031FF02C08BE201C080E237FD8DE2C7
:101BB000B70190E00E941A0EA51438F4B70180E333
:101BC00090E00E941A0E5A94F7CFAA94F401EA0DFD
:101BD000F11D8081B70190E00E941A0EA110F5CF8F
:101BE000332009F451CEB70180E290E00E941A0E32
:101BF0003A94F6CFF7018681978102C08FEF9FEF6D
:101C00002C96E2E10C94FE0EFC01059061507040B0
:101C10000110D8F7809590958E0F9F1F0895FC01B5
:101C20006150704001900110D8F7809590958E0F0B
:101C30009F1F08950F931F93CF93DF93FB01238181
:101C400021FD03C08FEF9FEF28C022FF16C0468101
:101C50005781248135814217530744F4A081B18113
:101C60009D012F5F3F4F318320838C9326813781E5
:101C70002F5F3F4F3783268310C0EB01092F182FAA
:101C80000084F185E02D0995892BE1F68E819F81F5
:101C900001969F838E83812F902FDF91CF911F918B
:101CA0000F910895FA01AA27283051F1203181F1CE
:101CB000E8946F936E7F6E5F7F4F8F4F9F4FAF4F54
:101CC000B1E03ED0B4E03CD0670F781F891F9A1F67
:101CD000A11D680F791F8A1F911DA11D6A0F711D1B
:101CE000811D911DA11D20D009F468943F912AE027
:101CF000269F11243019305D3193DEF6CF0108950F
:101D0000462F4770405D4193B3E00FD0C9F7F6CF3F
:101D1000462F4F70405D4A3318F0495D31FD405207
:101D2000419302D0A9F7EACFB4E0A695979587959D
:101D300077956795BA95C9F700976105710508957C
:101D40009B01AC010A2E0694579547953795279528
:101D5000BA95C9F7620F731F841F951FA01D0895C0
:101D6000052E97FB1EF400940E94C70E57FD07D066
:101D70000E94190F07FC03D04EF40C94C70E509527
:101D80004095309521953F4F4F4F5F4F0895909567
:101D90008095709561957F4F8F4F9F4F08950E945A
:101DA0003B0FA59F900DB49F900DA49F800D911D9A
:101DB00011240895B7FF0C94CF0E0E94CF0E821B02
:101DC000930B08952F923F924F925F926F927F9262
:101DD0008F929F92AF92BF92CF92DF92EF92FF923B
:101DE0000F931F93CF93DF93CDB7DEB7CA1BDB0BE7
:101DF0000FB6F894DEBF0FBECDBF09942A8839888C
:101E000048885F846E847D848C849B84AA84B98492
:101E1000C884DF80EE80FD800C811B81AA81B9819E
:101E2000CE0FD11D0FB6F894DEBF0FBECDBFED01B2
:101E30000895A1E21A2EAA1BBB1BFD010DC0AA1F0B
:101E4000BB1FEE1FFF1FA217B307E407F50720F023
:101E5000A21BB30BE40BF50B661F771F881F991F9E
:101E60001A9469F760957095809590959B01AC01E7
:101E7000BD01CF010895A29FB001B39FC001A39FF0
:101E8000700D811D1124911DB29F700D811D1124B3
:081E9000911D0895F894FFCFA5
:101E980001000000DB05FFFF436F6E73756D65641D
:101EA8003A2025640A0053656D6170686F72652079
:101EB80063616E206E6F742072656C656173652056
:101EC80062792050524F4455434552205461736BF8
:101ED800200D0A0070726F647563657200636F6E1F
:101EE80073756D65720053656D6170686F726520FA
:101EF8006E6F74204372656174656420436F7272FB
:101F08006563746C792021210074727565006661BF
:0A1F18006C73650049444C4500005D
:00000001FF
