:100000000C9434000C942B0C0C94580C0C94510050
:100010000C9451000C9451000C9451000C9451001C
:100020000C9451000C9451000C9451000C94370323
:100030000C9451000C9451000C9451000C945100FC
:100040000C9451000C9451000C9451000C945100EC
:100050000C9451000C9451000C9451000C945100DC
:100060000C9451000C94510011241FBECFEFD8E026
:10007000DEBFCDBF12E0A0E0B1E0E6E6F9E102C0EC
:1000800005900D92A434B107D9F728E0A4E4B2E0BA
:1000900001C01D92AC39B207E1F70E940C010C942B
:1000A000B10C0C940000CF93DF9300D0CDB7DEB736
:1000B00084E091E00E94990C0E9463089A838983EE
:1000C00020E040E050E060E070E080919208909184
:1000D00093080E943605882331F087E191E00E9461
:1000E000990C1AEA05C08DE391E00E94990CF9CFB2
:1000F00087E691E00E94990C20E04FEF5FEF60E00F
:1001000070E080919208909193080E9402068130DD
:1001100079F718B98FE691E00E94990C20E040E051
:1001200050E060E070E080919208909193080E9406
:100130003605813021F08DE391E00E94990C64E650
:1001400070E0CE0101960E94AC09D2CFCF93DF932D
:1001500000D0CDB7DEB782E991E00E94990C0E94F1
:1001600063089A83898315E584EA91E00E94990CDB
:1001700020E04FEF5FEF60E070E080919208909197
:1001800093080E940206813079F718B98BEA91E052
:100190000E94990C60ED77E0CE0101960E94AC09B7
:1001A000E3CF0E946308A0E0B0E040919608509130
:1001B00097086091980870919908841B950BA60B7D
:1001C000B70B853F9140A105B10528F18DEC91E079
:1001D0000E94990C1092440264E472E080919208AB
:1001E000909193080E94D7050E946308A0E0B0E0B8
:1001F0008093960890939708A0939808B0939908D5
:1002000080914402882319F00E948202089583EEAF
:1002100091E00E94990C0895F89441E050E061ED5E
:1002200070E080E00E94080C0E94850C43E060E0D2
:1002300081E00E940A059093930880939208892B8D
:1002400061F18FEF87B9A12CB12CC12CD12C0F2ECD
:10025000FAE9EF2EF8E0FF2EF02D01E020E030E08B
:1002600040E051E067E072E086EA90E00E941B0700
:100270000F2EF4E9EF2EF8E0FF2EF02D03E020E042
:1002800030E040E051E06BE072E083E590E00E94F6
:100290001B0778940E942E0804C080E192E00E941F
:1002A000990CFFCFFC010396928381832FEF3FEFE0
:1002B0003483238396838583908787831082089570
:1002C000FC01118610860895CF93DF939C01FB01FA
:1002D000DC011196CD91DC911297D383C2838C817E
:1002E0009D81958384838C819D81DC0113967C9311
:1002F0006E9312977D836C8331872087F90180810B
:100300008F5F8083DF91CF910895CF93DF93EB01CF
:10031000488159814F3F2FEF520721F4FC01A781FB
:10032000B0850DC0DC01139601C0DF011296ED917E
:10033000FC9113972081318142175307B0F7129631
:10034000ED91FC911397FB83EA83D583C483BD832E
:10035000AC831396DC93CE93129799878887FC0120
:1003600020812F5F2083DF91CF910895CF93DF937A
:10037000FC01A085B185C281D381848195819D8353
:100380008C83C481D581828193819B838A831196DA
:100390008D919C911297E817F90731F4848195812A
:1003A00012969C938E931197118610868C91815092
:1003B0008C93DF91CF91089531E1FC013083319727
:1003C00022E220833197A3E3A083319760833197A2
:1003D000708331971082319760E860833197108283
:1003E000319762E06083319763E06083319764E026
:1003F0006083319765E06083319766E06083319771
:1004000067E06083319768E06083319769E06083DB
:10041000319760E1608331973083319732E13083E7
:10042000319733E13083319734E13083319735E1CF
:100430003083319736E13083319737E1308331971C
:1004400038E13083319739E13083319730E23083BE
:10045000319731E2308331972083319723E2208333
:100460003197408331975083319726E2208331972B
:1004700027E22083319728E22083319729E22083E5
:10048000319720E32083319721E3208386970895D5
:10049000109289008CE7809388008BE08093810024
:1004A000EFE6F0E0808182608083A0918C08B091BB
:1004B0008D08CD91CDBFDD91DEBFFF91EF91DF9132
:1004C000CF91BF91AF919F918F917F916F915F91EC
:1004D0004F913F912F911F910F91FF90EF90DF90DF
:1004E000CF90BF90AF909F908F907F906F905F90D4
:1004F0004F903F902F901F900F900FBE0F90089538
:1005000081E008950F920FB6F8940F921F92112474
:100510002F923F924F925F926F927F928F929F9213
:10052000AF92BF92CF92DF92EF92FF920F931F9301
:100530002F933F934F935F936F937F938F939F93EB
:10054000AF93BF93CF93DF93EF93FF93A0918C086A
:10055000B0918D080DB60D920EB60D920E942B0A29
:10056000A0918C08B0918D08CD91CDBFDD91DEBFFB
:10057000FF91EF91DF91CF91BF91AF919F918F91BB
:100580007F916F915F914F913F912F911F910F91AB
:10059000FF90EF90DF90CF90BF90AF909F908F90A3
:1005A0007F906F905F904F903F902F901F900F9093
:1005B0000FBE0F9008950F920FB6F8940F921F92EE
:1005C00011242F923F924F925F926F927F928F925F
:1005D0009F92AF92BF92CF92DF92EF92FF920F93D2
:1005E0001F932F933F934F935F936F937F938F93BB
:1005F0009F93AF93BF93CF93DF93EF93FF93A0911C
:100600008C08B0918D080DB60D920EB60D920E9419
:100610006D0881110E942B0AA0918C08B0918D0861
:10062000CD91CDBFDD91DEBFFF91EF91DF91CF91F5
:10063000BF91AF919F918F917F916F915F914F91FA
:100640003F912F911F910F91FF90EF90DF90CF90EE
:10065000BF90AF909F908F907F906F905F904F90E2
:100660003F902F901F900F900FBE0F9008950E9403
:10067000DB0218950F931F93CF93DF93EC010E9439
:100680005D088091450281111DC0EAE4F2E08FE42B
:1006900092E09183808313821282E6E4F2E08BED94
:1006A00095E09383828311821082AEE4B2E01496C7
:1006B0009C938E9313971296FC93EE93119781E07F
:1006C00080934502209709F45FC09E012C5F3F4F45
:1006D0002396CA3DD54008F05AC0E0914A02F091F5
:1006E0004B02AAE4B2E002C0DF01FC0182819381E7
:1006F0008217930720F4808191810097A9F7C2E0C7
:10070000E634FC0709F446C0CD91DC9111978E01C7
:100710000C5F1F4F808191818D939C938281938187
:10072000821B930B8930910510F1BF01620F731F7B
:10073000DB0113969C938E93129733832283129638
:100740004D915C9113978AE492E001C0CD01EC01D8
:10075000A881B98112962D913C91139724173507E2
:10076000A8F3EB01B983A883DC016D937C9380919E
:1007700000019091010122813381821B930B9093A0
:1007800001018093000108C000E010E005C000E016
:1007900010E002C000E010E00E942A09C801DF91C9
:1007A000CF911F910F9108950F931F93CF93DF93D4
:1007B000009741F1EC018C01045011090E945D0881
:1007C000F80142815381AAE4B2E001C0DF01ED915A
:1007D000FC9111972281338124173507B8F32497B0
:1007E000F983E8830D931C9320910001309101015E
:1007F0008A819B81820F931F909301018093000156
:100800000E942A09DF91CF911F910F9108951F93A4
:10081000CF93DF93EC01142F4C8D41110CC08881D4
:100820009981892B09F045C08A819B810E94B60B72
:100830001B821A8245C0111117C050E08C819D8126
:100840000E94A80C2C8D8C819D81820F911D9D830F
:100850008C832A813B818217930768F18881998173
:100860009D838C8380E02CC050E08E819F810E940C
:10087000A80C8C8D90E09195819591092E813F81F6
:10088000280F391F3F832E8348815981241735074C
:1008900030F42A813B81820F931F9F838E83123015
:1008A00061F48A8D882359F08A8D81508A8F80E087
:1008B00007C080E005C080E003C080E001C080E0A8
:1008C0009A8D9F5F9A8FDF91CF911F910895FC01C0
:1008D000448D4423A9F050E026813781240F351F31
:1008E00037832683828193812817390720F08081FE
:1008F000918197838683CB01668177810E94A80CC2
:1009000008950F931F93CF93DF93EC010FB6F894E4
:100910000F928E8D1816BCF48989811105C013C001
:100920008989811104C00FC08E010F5E1F4FC8015D
:100930000E94C40A81110E94500B8E8D81508E8FAF
:100940008E8D18166CF38FEF8E8F0F900FBE0FB633
:10095000F8940F928D8D1816BCF48885811105C00E
:1009600013C08885811104C00FC08E01085F1F4F1E
:10097000C8010E94C40A81110E94500B8D8D8150C4
:100980008D8F8D8D18166CF38FEF8D8F0F900FBE9E
:10099000DF91CF911F910F910895CF93DF93EC01D9
:1009A0000FB6F8940F92488159812C8D30E07B8DE1
:1009B000729FC001739F900D1124FA01E80FF91F77
:1009C000FB83EA831A8E5D834C83821B930B840F17
:1009D000951F9F838E838FEF8D8F8E8F61110CC03B
:1009E0008885882389F0CE0108960E94C40A813048
:1009F00059F40E94820208C0CE0108960E9452015A
:100A0000CE0141960E9452010F900FBE81E0DF910E
:100A1000CF9108950F931F93CF93DF93082F162F35
:100A20006623B9F0869FC001112480960E943A0384
:100A3000EC01009721F414C0D983C88303C04F96FA
:100A4000998388830B8F1C8F61E0CE010E94CD04B7
:100A500007C08FE190E00E943A03EC01892B61F717
:100A6000CE01DF91CF911F910F9108959F92AF9288
:100A7000BF92CF92DF92EF92FF920F931F93CF938B
:100A8000DF9300D000D01F92CDB7DEB78C016B0191
:100A90005D834C83A22EB12C992493947C0188E031
:100AA000E80EF11C0FB6F8940F92F801928D838D29
:100AB000981718F0F2E0AF1219C04A2DB601C8011C
:100AC0000E940704F8019189992349F0C8014196D1
:100AD0000E94C40A813031F40E94820203C0811155
:100AE0000E9482020F900FBE81E050C08C819D81D8
:100AF000892B21F40F900FBE80E048C0B11005C0D3
:100B0000CE0101960E940C0BB92C0F900FBE0E94D3
:100B10005D080FB6F8940F92F801858D8F3F09F4A8
:100B2000158EF801868D8F3F09F4168E0F900FBE3B
:100B3000BE016C5F7F4FCE0101960E94170B8111A1
:100B40001FC00FB6F8940F92F801928D0F900FBE50
:100B5000838D98130FC06C817D81C7010E94980A14
:100B6000C8010E9481040E942A0981119BCF0E9422
:100B7000820298CFC8010E9481040E942A0992CF64
:100B8000C8010E9481040E942A0980E00F900F9002
:100B90000F900F900F90DF91CF911F910F91FF90C9
:100BA000EF90DF90CF90BF90AF909F900895CF933C
:100BB000DF93FC01928D838D9817D0F4828D8F5F27
:100BC000828F868D8F3F79F48189882399F0EB019C
:100BD000CF0141960E94C40A882371F0209771F0DA
:100BE00081E088830CC0868D8F5F868F81E007C08F
:100BF00080E005C081E003C081E001C081E0DF91B9
:100C0000CF9108959F92AF92BF92CF92DF92EF92D1
:100C1000FF920F931F93CF93DF9300D000D01F92CA
:100C2000CDB7DEB78C016B015D834C83922EB12C66
:100C3000AA24A3947C0181E1E80EF11C0FB6F8947C
:100C40000F92F801828D882399F1E680F780B60132
:100C5000C8010E94670491101AC0F801828D81506A
:100C6000828F80819181892B29F40E94F60BF801F3
:100C700093838283F80180858823B1F0C8010896A8
:100C80000E94C40A813081F40E9482020DC0F801E2
:100C9000F782E6828189882339F0C80141960E9453
:100CA000C40A81110E9482020F900FBE81E05CC0D5
:100CB0008C819D81892B21F40F900FBE80E054C060
:100CC000B11005C0CE0101960E940C0BBA2C0F90FA
:100CD0000FBE0E945D080FB6F8940F92F801858D43
:100CE0008F3F09F4158EF801868D8F3F09F4168E1B
:100CF0000F900FBEBE016C5F7F4FCE0101960E9428
:100D0000170B81112BC00FB6F8940F92F801828D4A
:100D10000F900FBE81111CC080819181892B49F4F5
:100D20000FB6F8940F92828193810E94540B0F901A
:100D30000FBE6C817D81C7010E94980AC8010E9484
:100D400081040E942A09811179CF0E94820276CF04
:100D5000C8010E9481040E942A0970CFC8010E9424
:100D600081040E942A0980E00F900F900F900F904D
:100D70000F90DF91CF911F910F91FF90EF90DF9037
:100D8000CF90BF90AF909F900895E0915408F0915C
:100D900055088081811107C08FEF9FEF9093030169
:100DA000809302010895E0915408F0915508058060
:100DB000F681E02D0680F781E02D8281938190936A
:100DC0000301809302010895CF93DF93EC01E0913A
:100DD0008C08F0918D0893838283809131089091E3
:100DE0003208C817D90768F460918C0870918D0893
:100DF00080915208909153086E5F7F4F0E94850149
:100E000017C060918C0870918D0880915408909162
:100E100055086E5F7F4F0E9485018091020190917D
:100E20000301C817D90720F4D0930301C09302012E
:100E3000DF91CF9108954F925F926F927F928F9240
:100E40009F92AF92BF92CF92DF92EF92FF920F9359
:100E50001F93CF93DF934C01EB015A012901C11479
:100E6000D10439F4CA010E943A036C01892B09F4B8
:100E7000E3C088E290E00E943A033C01009779F0D9
:100E8000FC01D08EC78AF1E0AF1AB108CA0CDB1C96
:100E90008881F301818F8881811105C014C0C6014A
:100EA0000E94D403C9C0D3015A96FE0131969E0117
:100EB000285F3F4FEF0181918D938881882319F03E
:100EC000E217F307B9F7F30110A2102F043008F06E
:100ED00013E0F301168B11A312A2E3012296CE01B7
:100EE0000E946001C3010C960E946001F3017186AB
:100EF000608684E090E0811B910995878487738ADE
:100F0000628A13A214A215A216A217A2A201B4010A
:100F1000C6010E94DC01F30191838083E114F10496
:100F200019F0F701718260820FB6F8940F928091E8
:100F300033088F5F8093330880918C0890918D08DF
:100F4000892BD1F570928D0860928C0880913308BE
:100F5000813009F040C088E698E00E94520181E7A4
:100F600098E00E9452018AE798E00E94520183E8CB
:100F700098E00E9452018FE598E00E94520186E5B8
:100F800098E00E94520189E498E00E94520180E4B6
:100F900098E00E94520186E398E00E9452018FE59A
:100FA00098E0909355088093540886E598E09093D4
:100FB0005308809352080FC080912F0881110BC0F5
:100FC000E0918C08F0918D088689081720F07092C6
:100FD0008D0860928C0880912B088F5F80932B087E
:100FE000F301868990913008981710F480933008A7
:100FF00090E09C01220F331F220F331F220F331F5B
:10100000820F931FBE018859974F0E9464010F9071
:101010000FBE80912F08882359F0E0918C08F09141
:101020008D088689801730F40E94820281E005C015
:1010300081E003C081E001C08FEFDF91CF911F916C
:101040000F91FF90EF90DF90CF90BF90AF909F9067
:101050008F907F906F905F904F900895AF92BF9266
:10106000CF92DF92EF92FF920F93A12CB12CC12C63
:10107000D12C0F2EF4E3EF2EF8E0FF2EF02D00E040
:1010800020E030E045E550E06EE372E08EEE99E05E
:101090000E941B07813049F4F89480932F08109226
:1010A0003208109231080E9448020F91FF90EF9091
:1010B000DF90CF90BF90AF90089580912A088F5F06
:1010C00080932A0808950FB6F8940F928091310802
:1010D000909132080F900FBE0895CF92DF92EF9259
:1010E000FF920F931F93CF93DF9380912A08811172
:1010F0009BC08091310890913208019690933208FC
:1011000080933108E0903108F0903208E114F10446
:10111000B9F480915408909155082091520830916B
:1011200053083093550820935408909353088093A4
:10113000520880912C088F5F80932C080E94C5066E
:101140008091020190910301E816F90610F4D12C68
:1011500053C0D12CCC24C394E0915408F09155088D
:101160008081811107C08FEF9FEF909303018093DF
:10117000020142C0E0915408F09155080580F681C3
:10118000E02DC681D7818A819B81E816F90628F473
:1011900090930301809302012FC08E010E5F1F4FB9
:1011A000C8010E94B6018C899D89892B21F0CE014E
:1011B0000C960E94B6018E8990913008981710F411
:1011C0008093300890E09C01220F331F220F331FC1
:1011D000220F331F820F931FB8018859974F0E9427
:1011E0006401E0918C08F0918D089E89868998179A
:1011F00008F4B2CFDC2CB0CFE0918C08F0918D08D0
:10120000868990E0FC01EE0FFF1FEE0FFF1FEE0F2F
:10121000FF1F8E0F9F1FFC01E859F74F808182301E
:1012200048F0DD24D39406C080912E088F5F809310
:101230002E08D12C80912D08882311F0DD24D39421
:101240008D2DDF91CF911F910F91FF90EF90DF9047
:10125000CF900895DF92EF92FF920F931F93CF9359
:10126000DF930FB6F8940F9280912A0881508093F3
:101270002A0880912A08811162C080913308811167
:1012800033C060C0D7011596ED91FC911697C681C9
:10129000D781CE010C960E94B6018E010E5F1F4FC2
:1012A000C8010E94B6018E8990913008981710F4F9
:1012B0008093300890E09C01220F331F220F331FD0
:1012C000220F331F820F931FB8018859974F0E9436
:1012D0006401E0918C08F0918D089E8986899817A9
:1012E00058F0D0922D0808C00F2EF9E4EF2EF8E048
:1012F000FF2EF02DDD24D394F70180818111C2CF20
:1013000080912E08882399F080912E08882379F007
:10131000C1E00E946D088111C0932D0880912E08B4
:10132000815080932E0880912E088111F2CF8091F8
:101330002D08813031F40E94820281E003C080E0F8
:1013400001C080E00F900FBEDF91CF911F910F91F0
:10135000FF90EF90DF9008950F931F93CF93DF934B
:101360008C01EB010E945D08209131083091320818
:10137000F80180819181C80FD91F2817390748F4D7
:10138000C817D90710F5D183C0832C173D0790F4F7
:1013900007C0C817D907A8F02C173D0790F015C053
:1013A00080918C0890918D0802960E94B601CE0122
:1013B0000E94E4060E942A0981110BC00E94820249
:1013C00008C0F801D183C083EBCFF801D183C0837B
:1013D000F1CFDF91CF911F910F91089500E418E0B4
:1013E0000F2EF8E6EF2EF8E0FF2EF02D29C00E9418
:1013F0005D08D801CC910E942A09CC2309F10FB6CF
:10140000F8940F92D8011596ED91FC911697C6812C
:10141000D781CE0102960E94B60180913308815097
:101420008093330880913F08815080933F080F904C
:101430000FBE8F89988D0E94D403CE010E94D403E1
:1014400080913F088111D3CFF70180818230C0F3B2
:101450000E948202F5CF80912A08882321F081E042
:1014600080932D08089510922D088091300890E007
:10147000FC01EE0FFF1FEE0FFF1FEE0FFF1F8E0F81
:101480009F1FFC01E859F74F8081811117C080919F
:1014900030088150809330088091300890E0FC0142
:1014A000EE0FFF1FEE0FFF1FEE0FFF1F8E0F9F1F90
:1014B000FC01E859F74F8081882349F38091300877
:1014C00090E09C01220F331F220F331F220F331F86
:1014D000280F391FD901A859B74F1196ED91FC91EA
:1014E00012970280F381E02D1296FC93EE931197F0
:1014F0002559374FE217F30729F422813381FD0183
:1015000032832183FC01EE0FFF1FEE0FFF1FEE0F52
:10151000FF1F8E0F9F1FFC01E859F74F0180F281DA
:10152000E02D8681978190938D0880938C08089593
:10153000CF93DF93EB0160918C0870918D08645F0D
:101540007F4F0E94850180918C0890918D080296B2
:101550000E94B601CF3F8FEFD80759F460918C08F5
:1015600070918D086E5F7F4F86E398E00E94640162
:1015700008C080913108909132088C0F9D1F0E9405
:10158000E406DF91CF9108950F931F93CF93DF93DC
:10159000DC011596ED91FC911697C681D7818E01DD
:1015A000045F1F4FC8010E94B60180912A08811173
:1015B0001CC00A501109C8010E94B6018E89909181
:1015C0003008981710F48093300890E09C01220FA7
:1015D000331F220F331F220F331F820F931FB801B7
:1015E0008859974F0E94640105C0B80189E498E0CA
:1015F0000E946401E0918C08F0918D089E89868993
:10160000891720F481E080932D0801C080E0DF91EC
:10161000CF911F910F91089520912C08FC012083F8
:1016200020913108309132083283218308950FB61A
:10163000F8940F924091310850913208DB012D91BE
:101640003C912F3FBFEF3B0719F1E0912C08DC01E3
:10165000FC91FE1739F01196ED91FC9112974E17FF
:101660005F07C0F4DC011196ED91FC911297DA014D
:10167000AE1BBF0BA217B30778F4DB01E41BF50B1D
:101680002E0F3F1F2D933C930E940C0B80E005C052
:1016900080E003C081E001C081E00F900FBE08959B
:1016A00081E080932D0808950F931F93CF93DF93CC
:1016B000FC01892B09F455C02689A0918C08B091B2
:1016C0008D0856968C91281708F04BC08485958517
:1016D000992364F0A0918C08B0918D0856963C91A6
:1016E00084E090E0831B91099587848730E0C901ED
:1016F000880F991F880F991F880F991F280F391F6E
:101700002859374F828593858217930719F58F01E2
:10171000EF012296CE010E94B601E0918C08F09173
:101720008D088689F801868B90913008981710F4FF
:101730008093300890E09C01220F331F220F331F4B
:10174000220F331F820F931FBE018859974F0E94AB
:10175000640107C0A0918C08B0918D0856968C91B9
:10176000868BDF91CF911F910F9108950F931F9357
:10177000CF93DF93FC01892B79F182A1815082A361
:10178000268991A1291751F181112AC0EF018F01FA
:101790000E5F1F4FC8010E94B60189A18E8B24E005
:1017A00030E0281B31093D872C879091300898172D
:1017B00010F48093300890E09C01220F331F220F19
:1017C000331F220F331F820F931FB8018859974F81
:1017D0000E94640181E005C080E003C080E001C098
:1017E00080E0DF91CF911F910F91089580918C0837
:1017F00090918D08892B39F0E0918C08F0918D083B
:1018000082A18F5F82A380918C0890918D080895AA
:10181000823000F5E82FF0E0EE0FFF1FE257F74FA0
:1018200071836083882319F0813049F00895E9E6D7
:10183000F0E080818C7F482B4083E89A0895E9E6A8
:10184000F0E08081837F440F551F440F551F482BC4
:101850004083E99A08951F920F920FB60F921124B8
:101860002F933F934F935F936F937F938F939F93A8
:10187000AF93BF93EF93FF9380918E0890918F0861
:10188000892B29F0E0918E08F0918F080995FF913E
:10189000EF91BF91AF919F918F917F916F915F91E8
:1018A0004F913F912F910F900FBE0F901F90189561
:1018B0001F920F920FB60F9211242F933F934F93C5
:1018C0005F936F937F938F939F93AF93BF93EF93A8
:1018D000FF938091900890919108892B29F0E091D5
:1018E0009008F09191080995FF91EF91BF91AF9108
:1018F0009F918F917F916F915F914F913F912F9128
:101900000F900FBE0F901F9018951092C50087E69C
:101910008093C4008CE18093C10086E08093C20074
:101920000895E0ECF0E0908195FFFDCF8093C60034
:101930000895CF93DF93EC018881882331F02196BD
:101940000E94910C89918111FBCFDF91CF91089575
:10195000FB01DC0102C001900D9241505040D8F7CC
:061960000895F894FFCF8A
:10196600DB05FFFF5374617274204576656E205463
:1019760061736B200D0A0053656D6170686F726547
:101986002069732072656C656173656420627920D5
:101996004576656E205461736B200D0A0053656DA4
:1019A6006170686F72652063616E206E6F7420725D
:1019B600656C65617365206279204576656E205495
:1019C60061736B200D0A004576656E200D0A005383
:1019D600656D6170686F72652069732067697665E9
:1019E6006E20746F204576656E205461736B200DF2
:1019F6000A005374617274204F6464205461736BDF
:101A0600200D0A004F6464200D0A0053656D617055
:101A1600686F726520697320676976656E20746FDA
:101A2600204F6464205461736B200D0A00696E7444
:101A36006572727570742048617070656E65642099
:101A46000D0A004E6F2048696768657220507269FA
:101A56006F72697479205461736B20697320576FB4
:101A66006B656E200D0A004F6464004576656E0056
:101A760053656D6170686F7265206E6F7420437276
:101A8600656174656420436F72726563746C792056
:101A9600212100747275650066616C7365004944A6
:041AA6004C450000AB
:00000001FF
